{
  "address": "0xf1A9589880DbF393F32A5b2d5a0054Fa10385074",
  "abi": [
    {
      "inputs": [
        {
          "internalType": "address",
          "name": "_token",
          "type": "address"
        }
      ],
      "stateMutability": "nonpayable",
      "type": "constructor"
    },
    {
      "anonymous": false,
      "inputs": [
        {
          "indexed": false,
          "internalType": "address",
          "name": "_claimant",
          "type": "address"
        },
        {
          "indexed": false,
          "internalType": "uint256",
          "name": "_balance",
          "type": "uint256"
        }
      ],
      "name": "Claimed",
      "type": "event"
    },
    {
      "anonymous": false,
      "inputs": [
        {
          "indexed": true,
          "internalType": "address",
          "name": "previousOwner",
          "type": "address"
        },
        {
          "indexed": true,
          "internalType": "address",
          "name": "newOwner",
          "type": "address"
        }
      ],
      "name": "OwnershipTransferred",
      "type": "event"
    },
    {
      "inputs": [
        {
          "internalType": "address",
          "name": "_liquidityProvider",
          "type": "address"
        },
        {
          "internalType": "uint256",
          "name": "_begin",
          "type": "uint256"
        },
        {
          "internalType": "uint256",
          "name": "_end",
          "type": "uint256"
        }
      ],
      "name": "claimStatus",
      "outputs": [
        {
          "internalType": "bool[]",
          "name": "",
          "type": "bool[]"
        }
      ],
      "stateMutability": "view",
      "type": "function"
    },
    {
      "inputs": [
        {
          "internalType": "address",
          "name": "_liquidityProvider",
          "type": "address"
        },
        {
          "internalType": "uint256",
          "name": "_week",
          "type": "uint256"
        },
        {
          "internalType": "uint256",
          "name": "_claimedBalance",
          "type": "uint256"
        },
        {
          "internalType": "bytes32[]",
          "name": "_merkleProof",
          "type": "bytes32[]"
        }
      ],
      "name": "claimWeek",
      "outputs": [],
      "stateMutability": "nonpayable",
      "type": "function"
    },
    {
      "inputs": [
        {
          "internalType": "address",
          "name": "_liquidityProvider",
          "type": "address"
        },
        {
          "components": [
            {
              "internalType": "uint256",
              "name": "week",
              "type": "uint256"
            },
            {
              "internalType": "uint256",
              "name": "balance",
              "type": "uint256"
            },
            {
              "internalType": "bytes32[]",
              "name": "merkleProof",
              "type": "bytes32[]"
            }
          ],
          "internalType": "struct MerkleRedeem.Claim[]",
          "name": "claims",
          "type": "tuple[]"
        }
      ],
      "name": "claimWeeks",
      "outputs": [],
      "stateMutability": "nonpayable",
      "type": "function"
    },
    {
      "inputs": [
        {
          "internalType": "uint256",
          "name": "",
          "type": "uint256"
        },
        {
          "internalType": "address",
          "name": "",
          "type": "address"
        }
      ],
      "name": "claimed",
      "outputs": [
        {
          "internalType": "bool",
          "name": "",
          "type": "bool"
        }
      ],
      "stateMutability": "view",
      "type": "function"
    },
    {
      "inputs": [
        {
          "internalType": "uint256",
          "name": "_begin",
          "type": "uint256"
        },
        {
          "internalType": "uint256",
          "name": "_end",
          "type": "uint256"
        }
      ],
      "name": "merkleRoots",
      "outputs": [
        {
          "internalType": "bytes32[]",
          "name": "",
          "type": "bytes32[]"
        }
      ],
      "stateMutability": "view",
      "type": "function"
    },
    {
      "inputs": [],
      "name": "owner",
      "outputs": [
        {
          "internalType": "address",
          "name": "",
          "type": "address"
        }
      ],
      "stateMutability": "view",
      "type": "function"
    },
    {
      "inputs": [],
      "name": "renounceOwnership",
      "outputs": [],
      "stateMutability": "nonpayable",
      "type": "function"
    },
    {
      "inputs": [
        {
          "internalType": "uint256",
          "name": "_week",
          "type": "uint256"
        },
        {
          "internalType": "bytes32",
          "name": "_merkleRoot",
          "type": "bytes32"
        },
        {
          "internalType": "uint256",
          "name": "_totalAllocation",
          "type": "uint256"
        }
      ],
      "name": "seedAllocations",
      "outputs": [],
      "stateMutability": "nonpayable",
      "type": "function"
    },
    {
      "inputs": [],
      "name": "token",
      "outputs": [
        {
          "internalType": "contract IERC20",
          "name": "",
          "type": "address"
        }
      ],
      "stateMutability": "view",
      "type": "function"
    },
    {
      "inputs": [
        {
          "internalType": "address",
          "name": "newOwner",
          "type": "address"
        }
      ],
      "name": "transferOwnership",
      "outputs": [],
      "stateMutability": "nonpayable",
      "type": "function"
    },
    {
      "inputs": [
        {
          "internalType": "address",
          "name": "_liquidityProvider",
          "type": "address"
        },
        {
          "internalType": "uint256",
          "name": "_week",
          "type": "uint256"
        },
        {
          "internalType": "uint256",
          "name": "_claimedBalance",
          "type": "uint256"
        },
        {
          "internalType": "bytes32[]",
          "name": "_merkleProof",
          "type": "bytes32[]"
        }
      ],
      "name": "verifyClaim",
      "outputs": [
        {
          "internalType": "bool",
          "name": "valid",
          "type": "bool"
        }
      ],
      "stateMutability": "view",
      "type": "function"
    },
    {
      "inputs": [
        {
          "internalType": "uint256",
          "name": "",
          "type": "uint256"
        }
      ],
      "name": "weekMerkleRoots",
      "outputs": [
        {
          "internalType": "bytes32",
          "name": "",
          "type": "bytes32"
        }
      ],
      "stateMutability": "view",
      "type": "function"
    }
  ],
  "transactionHash": "0xfec65038545c90701fd1652336b42c5ee4ecc2ccf9ce4177dd79294139d5d87a",
  "args": [
    "0xcb3231aBA3b451343e0Fddfc45883c842f223846"
  ],
  "solcInputHash": "d4877a002975406a2453170cccec33dc",
  "bytecode": "0x608060405234801561001057600080fd5b50604051610fbf380380610fbf83398101604081905261002f916100b5565b60006100426001600160e01b036100b116565b600080546001600160a01b0319166001600160a01b0383169081178255604051929350917f8be0079c531659141344cd1fd0a4f28419497f9722a3daafe3b4186f6b6457e0908290a350600180546001600160a01b0319166001600160a01b03929092169190911790556100e3565b3390565b6000602082840312156100c6578081fd5b81516001600160a01b03811681146100dc578182fd5b9392505050565b610ecd806100f26000396000f3fe608060405234801561001057600080fd5b50600436106100b45760003560e01c80638da5cb5b116100715780638da5cb5b14610152578063c804c39a14610167578063dd8c9c9d1461017a578063eb0d07f51461019a578063f2fde38b146101ad578063fc0c546a146101c0576100b4565b8063120aa877146100b957806339436b00146100e257806347fb23c1146101025780634cd488ab1461012257806358b4e4b414610137578063715018a61461014a575b600080fd5b6100cc6100c7366004610bb6565b6101c8565b6040516100d99190610d2d565b60405180910390f35b6100f56100f0366004610c0d565b6101e8565b6040516100d99190610cf5565b610115610110366004610aeb565b61027e565b6040516100d99190610caf565b610135610130366004610be2565b610332565b005b610135610145366004610b1e565b61045f565b6101356104f4565b61015a61057d565b6040516100d99190610c5e565b610135610175366004610a4d565b61058c565b61018d610188366004610b9e565b61066d565b6040516100d99190610d38565b6100cc6101a8366004610b1e565b61067f565b6101356101bb366004610a2b565b6106d5565b61015a610795565b600360209081526000928352604080842090915290825290205460ff1681565b6060828203600101818167ffffffffffffffff8111801561020857600080fd5b50604051908082528060200260200182016040528015610232578160200160208202803683370190505b50905060005b8281101561027357858101600090815260026020526040902054825183908390811061026057fe5b6020908102919091010152600101610238565b509150505b92915050565b6060828203600101818167ffffffffffffffff8111801561029e57600080fd5b506040519080825280602002602001820160405280156102c8578160200160208202803683370190505b50905060005b828110156103285785810160009081526003602090815260408083206001600160a01b038b168452909152902054825160ff9091169083908390811061031057fe5b911515602092830291909101909101526001016102ce565b5095945050505050565b61033a6107a4565b6001600160a01b031661034b61057d565b6001600160a01b03161461037a5760405162461bcd60e51b815260040161037190610db7565b60405180910390fd5b600083815260026020526040902054156103a65760405162461bcd60e51b815260040161037190610e19565b6000838152600260205260409081902083905560015490516323b872dd60e01b81526001600160a01b03909116906323b872dd906103ec90339030908690600401610c72565b602060405180830381600087803b15801561040657600080fd5b505af115801561041a573d6000803e3d6000fd5b505050506040513d601f19601f8201168201806040525081019061043e9190610b7e565b61045a5760405162461bcd60e51b815260040161037190610dec565b505050565b60008381526003602090815260408083206001600160a01b038816845290915290205460ff161561048f57600080fd5b61049b8484848461067f565b6104b75760405162461bcd60e51b815260040161037190610d87565b60008381526003602090815260408083206001600160a01b03881684529091529020805460ff191660011790556104ee84836107a8565b50505050565b6104fc6107a4565b6001600160a01b031661050d61057d565b6001600160a01b0316146105335760405162461bcd60e51b815260040161037190610db7565b600080546040516001600160a01b03909116907f8be0079c531659141344cd1fd0a4f28419497f9722a3daafe3b4186f6b6457e0908390a3600080546001600160a01b0319169055565b6000546001600160a01b031690565b6000610596610928565b60005b8351811015610662578381815181106105ae57fe5b602090810291909101810151805160009081526003835260408082206001600160a01b038a168352909352919091205490925060ff16156105ee57600080fd5b6106068583600001518460200151856040015161067f565b6106225760405162461bcd60e51b815260040161037190610d87565b602080830151835160009081526003835260408082206001600160a01b038a16835290935291909120805460ff1916600190811790915593019201610599565b506104ee84836107a8565b60026020526000908152604090205481565b6000808584604051602001610695929190610c2e565b6040516020818303038152906040528051906020012090506106cb8360026000888152602001908152602001600020548361088b565b9695505050505050565b6106dd6107a4565b6001600160a01b03166106ee61057d565b6001600160a01b0316146107145760405162461bcd60e51b815260040161037190610db7565b6001600160a01b03811661073a5760405162461bcd60e51b815260040161037190610d41565b600080546040516001600160a01b03808516939216917f8be0079c531659141344cd1fd0a4f28419497f9722a3daafe3b4186f6b6457e091a3600080546001600160a01b0319166001600160a01b0392909216919091179055565b6001546001600160a01b031681565b3390565b8015610887577fd8138f8a3f377c5259ca548e70e4c2de94f129f5a11036a15b69513cba2b426a82826040516107df929190610c96565b60405180910390a160015460405163a9059cbb60e01b81526001600160a01b039091169063a9059cbb906108199085908590600401610c96565b602060405180830381600087803b15801561083357600080fd5b505af1158015610847573d6000803e3d6000fd5b505050506040513d601f19601f8201168201806040525081019061086b9190610b7e565b6108875760405162461bcd60e51b815260040161037190610dec565b5050565b600081815b855181101561091d5760008682815181106108a757fe5b602002602001015190508083116108e85782816040516020016108cb929190610c50565b604051602081830303815290604052805190602001209250610914565b80836040516020016108fb929190610c50565b6040516020818303038152906040528051906020012092505b50600101610890565b509092149392505050565b60405180606001604052806000815260200160008152602001606081525090565b80356001600160a01b038116811461027857600080fd5b600082601f830112610970578081fd5b813561098361097e82610e77565b610e50565b8181529150602080830190848101818402860182018710156109a457600080fd5b60005b848110156109c3578135845292820192908201906001016109a7565b505050505092915050565b6000606082840312156109df578081fd5b6109e96060610e50565b90508135815260208201356020820152604082013567ffffffffffffffff811115610a1357600080fd5b610a1f84828501610960565b60408301525092915050565b600060208284031215610a3c578081fd5b610a468383610949565b9392505050565b60008060408385031215610a5f578081fd5b610a698484610949565b915060208084013567ffffffffffffffff811115610a85578283fd5b80850186601f820112610a96578384fd5b80359150610aa661097e83610e77565b82815283810190828501865b85811015610adb57610ac98b8884358801016109ce565b84529286019290860190600101610ab2565b5096999098509650505050505050565b600080600060608486031215610aff578081fd5b610b098585610949565b95602085013595506040909401359392505050565b60008060008060808587031215610b33578081fd5b610b3d8686610949565b93506020850135925060408501359150606085013567ffffffffffffffff811115610b66578182fd5b610b7287828801610960565b91505092959194509250565b600060208284031215610b8f578081fd5b81518015158114610a46578182fd5b600060208284031215610baf578081fd5b5035919050565b60008060408385031215610bc8578182fd5b82359150610bd98460208501610949565b90509250929050565b600080600060608486031215610bf6578283fd5b505081359360208301359350604090920135919050565b60008060408385031215610c1f578182fd5b50508035926020909101359150565b60609290921b6bffffffffffffffffffffffff19168252601482015260340190565b918252602082015260400190565b6001600160a01b0391909116815260200190565b6001600160a01b039384168152919092166020820152604081019190915260600190565b6001600160a01b03929092168252602082015260400190565b6020808252825182820181905260009190848201906040850190845b81811015610ce9578351151583529284019291840191600101610ccb565b50909695505050505050565b6020808252825182820181905260009190848201906040850190845b81811015610ce957835183529284019291840191600101610d11565b901515815260200190565b90815260200190565b60208082526026908201527f4f776e61626c653a206e6577206f776e657220697320746865207a65726f206160408201526564647265737360d01b606082015260800190565b60208082526016908201527524b731b7b93932b1ba1036b2b935b63290383937b7b360511b604082015260600190565b6020808252818101527f4f776e61626c653a2063616c6c6572206973206e6f7420746865206f776e6572604082015260600190565b60208082526013908201527211549497d514905394d1915497d19052531151606a1b604082015260600190565b6020808252601a908201527f63616e6e6f742072657772697465206d65726b6c6520726f6f74000000000000604082015260600190565b60405181810167ffffffffffffffff81118282101715610e6f57600080fd5b604052919050565b600067ffffffffffffffff821115610e8d578081fd5b506020908102019056fea2646970667358221220296eac005c7f95edb24611c66f89fda0554fdb45eefce851f379d955ac72932064736f6c63430006080033",
  "devdoc": {
    "methods": {
      "claimStatus(address,uint256,uint256)": {
        "params": {
          "_begin": "The week to start with (inclusive).",
          "_end": "The week to end with (inclusive).",
          "_liquidityProvider": "The address of the claimant."
        }
      },
      "claimWeek(address,uint256,uint256,bytes32[])": {
        "params": {
          "_claimedBalance": "The amount being claimed.",
          "_liquidityProvider": "The address of the claimant.",
          "_merkleProof": "The merkle proof for the claim, sorted from the leaf to the root of the tree.",
          "_week": "The week for the claim."
        }
      },
      "claimWeeks(address,(uint256,uint256,bytes32[])[])": {
        "params": {
          "_liquidityProvider": "The address of the claimant.",
          "claims": "An array of claims containing the week, balance and the merkle proof."
        }
      },
      "constructor": {
        "params": {
          "_token": "The address of the token being distributed."
        }
      },
      "merkleRoots(uint256,uint256)": {
        "params": {
          "_begin": "The week to start with (inclusive).",
          "_end": "The week to end with (inclusive)."
        }
      },
      "owner()": {
        "details": "Returns the address of the current owner."
      },
      "renounceOwnership()": {
        "details": "Leaves the contract without owner. It will not be possible to call `onlyOwner` functions anymore. Can only be called by the current owner.     * NOTE: Renouncing ownership will leave the contract without an owner, thereby removing any functionality that is only available to the owner."
      },
      "seedAllocations(uint256,bytes32,uint256)": {
        "details": "Will transfer tokens from the owner to this contract.",
        "params": {
          "_merkleRoot": "The merkle root of the claims for that period.",
          "_totalAllocation": "The amount of tokens allocated for the distribution.",
          "_week": "The airdrop week."
        }
      },
      "transferOwnership(address)": {
        "details": "Transfers ownership of the contract to a new account (`newOwner`). Can only be called by the current owner."
      },
      "verifyClaim(address,uint256,uint256,bytes32[])": {
        "params": {
          "_claimedBalance": "The amount being claimed.",
          "_liquidityProvider": "The address of the claimant.",
          "_merkleProof": "The merkle proof for the claim, sorted from the leaf to the root of the tree.",
          "_week": "The week for the claim."
        }
      }
    },
    "title": "Distribution of tokens in a recurrent fashion."
  },
  "userdoc": {
    "methods": {
      "claimStatus(address,uint256,uint256)": {
        "notice": "Gets the claim status for given claimant from `_begin` to `_end` weeks."
      },
      "claimWeek(address,uint256,uint256,bytes32[])": {
        "notice": "Makes a claim for a given claimant in a week."
      },
      "claimWeeks(address,(uint256,uint256,bytes32[])[])": {
        "notice": "Makes multiple claims for a given claimant."
      },
      "merkleRoots(uint256,uint256)": {
        "notice": "Gets all merkle roots for from `_begin` to `_end` weeks."
      },
      "seedAllocations(uint256,bytes32,uint256)": {
        "notice": "Seeds a new round for the airdrop."
      },
      "verifyClaim(address,uint256,uint256,bytes32[])": {
        "notice": "Verifies a claim."
      }
    }
  },
  "storageLayout": {
    "storage": [
      {
        "astId": 7,
        "contract": "src/MerkleRedeem.sol:MerkleRedeem",
        "label": "_owner",
        "offset": 0,
        "slot": "0",
        "type": "t_address"
      },
      {
        "astId": 292,
        "contract": "src/MerkleRedeem.sol:MerkleRedeem",
        "label": "token",
        "offset": 0,
        "slot": "1",
        "type": "t_contract(IERC20)258"
      },
      {
        "astId": 303,
        "contract": "src/MerkleRedeem.sol:MerkleRedeem",
        "label": "weekMerkleRoots",
        "offset": 0,
        "slot": "2",
        "type": "t_mapping(t_uint256,t_bytes32)"
      },
      {
        "astId": 309,
        "contract": "src/MerkleRedeem.sol:MerkleRedeem",
        "label": "claimed",
        "offset": 0,
        "slot": "3",
        "type": "t_mapping(t_uint256,t_mapping(t_address,t_bool))"
      }
    ],
    "types": {
      "t_address": {
        "encoding": "inplace",
        "label": "address",
        "numberOfBytes": "20"
      },
      "t_bool": {
        "encoding": "inplace",
        "label": "bool",
        "numberOfBytes": "1"
      },
      "t_bytes32": {
        "encoding": "inplace",
        "label": "bytes32",
        "numberOfBytes": "32"
      },
      "t_contract(IERC20)258": {
        "encoding": "inplace",
        "label": "contract IERC20",
        "numberOfBytes": "20"
      },
      "t_mapping(t_address,t_bool)": {
        "encoding": "mapping",
        "key": "t_address",
        "label": "mapping(address => bool)",
        "numberOfBytes": "32",
        "value": "t_bool"
      },
      "t_mapping(t_uint256,t_bytes32)": {
        "encoding": "mapping",
        "key": "t_uint256",
        "label": "mapping(uint256 => bytes32)",
        "numberOfBytes": "32",
        "value": "t_bytes32"
      },
      "t_mapping(t_uint256,t_mapping(t_address,t_bool))": {
        "encoding": "mapping",
        "key": "t_uint256",
        "label": "mapping(uint256 => mapping(address => bool))",
        "numberOfBytes": "32",
        "value": "t_mapping(t_address,t_bool)"
      },
      "t_uint256": {
        "encoding": "inplace",
        "label": "uint256",
        "numberOfBytes": "32"
      }
    }
  }
}