{"contractName":"xKlerosLiquid","abi":[{"constant":true,"inputs":[],"name":"RNBlock","outputs":[{"name":"","type":"uint256"}],"payable":false,"stateMutability":"view","type":"function"},{"constant":true,"inputs":[],"name":"disputesWithoutJurors","outputs":[{"name":"","type":"uint256"}],"payable":false,"stateMutability":"view","type":"function"},{"constant":true,"inputs":[],"name":"governor","outputs":[{"name":"","type":"address"}],"payable":false,"stateMutability":"view","type":"function"},{"constant":true,"inputs":[],"name":"lastDelayedSetStake","outputs":[{"name":"","type":"uint256"}],"payable":false,"stateMutability":"view","type":"function"},{"constant":true,"inputs":[],"name":"maxDrawingTime","outputs":[{"name":"","type":"uint256"}],"payable":false,"stateMutability":"view","type":"function"},{"constant":true,"inputs":[{"name":"","type":"uint256"}],"name":"courts","outputs":[{"name":"parent","type":"uint96"},{"name":"hiddenVotes","type":"bool"},{"name":"minStake","type":"uint256"},{"name":"alpha","type":"uint256"},{"name":"feeForJuror","type":"uint256"},{"name":"jurorsForCourtJump","type":"uint256"}],"payable":false,"stateMutability":"view","type":"function"},{"constant":true,"inputs":[],"name":"ALPHA_DIVISOR","outputs":[{"name":"","type":"uint256"}],"payable":false,"stateMutability":"view","type":"function"},{"constant":true,"inputs":[{"name":"","type":"uint256"}],"name":"disputes","outputs":[{"name":"subcourtID","type":"uint96"},{"name":"arbitrated","type":"address"},{"name":"numberOfChoices","type":"uint256"},{"name":"period","type":"uint8"},{"name":"lastPeriodChange","type":"uint256"},{"name":"drawsInRound","type":"uint256"},{"name":"commitsInRound","type":"uint256"},{"name":"ruled","type":"bool"}],"payable":false,"stateMutability":"view","type":"function"},{"constant":true,"inputs":[],"name":"RN","outputs":[{"name":"","type":"uint256"}],"payable":false,"stateMutability":"view","type":"function"},{"constant":true,"inputs":[],"name":"RNGenerator","outputs":[{"name":"","type":"address"}],"payable":false,"stateMutability":"view","type":"function"},{"constant":true,"inputs":[],"name":"NON_PAYABLE_AMOUNT","outputs":[{"name":"","type":"uint256"}],"payable":false,"stateMutability":"view","type":"function"},{"constant":true,"inputs":[],"name":"phase","outputs":[{"name":"","type":"uint8"}],"payable":false,"stateMutability":"view","type":"function"},{"constant":true,"inputs":[],"name":"MAX_STAKE_PATHS","outputs":[{"name":"","type":"uint256"}],"payable":false,"stateMutability":"view","type":"function"},{"constant":true,"inputs":[{"name":"","type":"uint256"}],"name":"delayedSetStakes","outputs":[{"name":"account","type":"address"},{"name":"subcourtID","type":"uint96"},{"name":"stake","type":"uint128"}],"payable":false,"stateMutability":"view","type":"function"},{"constant":true,"inputs":[],"name":"lastPhaseChange","outputs":[{"name":"","type":"uint256"}],"payable":false,"stateMutability":"view","type":"function"},{"constant":true,"inputs":[],"name":"minStakingTime","outputs":[{"name":"","type":"uint256"}],"payable":false,"stateMutability":"view","type":"function"},{"constant":true,"inputs":[],"name":"nextDelayedSetStake","outputs":[{"name":"","type":"uint256"}],"payable":false,"stateMutability":"view","type":"function"},{"constant":true,"inputs":[],"name":"totalDisputes","outputs":[{"name":"","type":"uint256"}],"payable":false,"stateMutability":"view","type":"function"},{"constant":true,"inputs":[{"name":"","type":"address"}],"name":"jurors","outputs":[{"name":"stakedTokens","type":"uint256"},{"name":"lockedTokens","type":"uint256"}],"payable":false,"stateMutability":"view","type":"function"},{"constant":true,"inputs":[],"name":"MIN_JURORS","outputs":[{"name":"","type":"uint256"}],"payable":false,"stateMutability":"view","type":"function"},{"constant":true,"inputs":[],"name":"lockInsolventTransfers","outputs":[{"name":"","type":"bool"}],"payable":false,"stateMutability":"view","type":"function"},{"constant":true,"inputs":[],"name":"pinakion","outputs":[{"name":"","type":"address"}],"payable":false,"stateMutability":"view","type":"function"},{"anonymous":false,"inputs":[{"indexed":false,"name":"_phase","type":"uint8"}],"name":"NewPhase","type":"event"},{"anonymous":false,"inputs":[{"indexed":true,"name":"_disputeID","type":"uint256"},{"indexed":false,"name":"_period","type":"uint8"}],"name":"NewPeriod","type":"event"},{"anonymous":false,"inputs":[{"indexed":true,"name":"_address","type":"address"},{"indexed":false,"name":"_subcourtID","type":"uint256"},{"indexed":false,"name":"_stake","type":"uint128"},{"indexed":false,"name":"_newTotalStake","type":"uint256"}],"name":"StakeSet","type":"event"},{"anonymous":false,"inputs":[{"indexed":true,"name":"_address","type":"address"},{"indexed":true,"name":"_disputeID","type":"uint256"},{"indexed":false,"name":"_appeal","type":"uint256"},{"indexed":false,"name":"_voteID","type":"uint256"}],"name":"Draw","type":"event"},{"anonymous":false,"inputs":[{"indexed":true,"name":"_address","type":"address"},{"indexed":true,"name":"_disputeID","type":"uint256"},{"indexed":false,"name":"_tokenAmount","type":"int256"},{"indexed":false,"name":"_ETHAmount","type":"int256"}],"name":"TokenAndETHShift","type":"event"},{"anonymous":false,"inputs":[{"indexed":true,"name":"_disputeID","type":"uint256"},{"indexed":true,"name":"_arbitrable","type":"address"}],"name":"DisputeCreation","type":"event"},{"anonymous":false,"inputs":[{"indexed":true,"name":"_disputeID","type":"uint256"},{"indexed":true,"name":"_arbitrable","type":"address"}],"name":"AppealPossible","type":"event"},{"anonymous":false,"inputs":[{"indexed":true,"name":"_disputeID","type":"uint256"},{"indexed":true,"name":"_arbitrable","type":"address"}],"name":"AppealDecision","type":"event"},{"constant":false,"inputs":[{"name":"_governor","type":"address"},{"name":"_pinakion","type":"address"},{"name":"_RNGenerator","type":"address"},{"name":"_minStakingTime","type":"uint256"},{"name":"_maxDrawingTime","type":"uint256"},{"name":"_hiddenVotes","type":"bool"},{"name":"_minStake","type":"uint256"},{"name":"_alpha","type":"uint256"},{"name":"_feeForJuror","type":"uint256"},{"name":"_jurorsForCourtJump","type":"uint256"},{"name":"_timesPerPeriod","type":"uint256[4]"},{"name":"_sortitionSumTreeK","type":"uint256"}],"name":"initialize","outputs":[],"payable":false,"stateMutability":"nonpayable","type":"function"},{"constant":false,"inputs":[{"name":"_destination","type":"address"},{"name":"_amount","type":"uint256"},{"name":"_data","type":"bytes"}],"name":"executeGovernorProposal","outputs":[],"payable":false,"stateMutability":"nonpayable","type":"function"},{"constant":false,"inputs":[{"name":"_governor","type":"address"}],"name":"changeGovernor","outputs":[],"payable":false,"stateMutability":"nonpayable","type":"function"},{"constant":false,"inputs":[{"name":"_pinakion","type":"address"}],"name":"changePinakion","outputs":[],"payable":false,"stateMutability":"nonpayable","type":"function"},{"constant":false,"inputs":[{"name":"_RNGenerator","type":"address"}],"name":"changeRNGenerator","outputs":[],"payable":false,"stateMutability":"nonpayable","type":"function"},{"constant":false,"inputs":[{"name":"_minStakingTime","type":"uint256"}],"name":"changeMinStakingTime","outputs":[],"payable":false,"stateMutability":"nonpayable","type":"function"},{"constant":false,"inputs":[{"name":"_maxDrawingTime","type":"uint256"}],"name":"changeMaxDrawingTime","outputs":[],"payable":false,"stateMutability":"nonpayable","type":"function"},{"constant":false,"inputs":[{"name":"_parent","type":"uint96"},{"name":"_hiddenVotes","type":"bool"},{"name":"_minStake","type":"uint256"},{"name":"_alpha","type":"uint256"},{"name":"_feeForJuror","type":"uint256"},{"name":"_jurorsForCourtJump","type":"uint256"},{"name":"_timesPerPeriod","type":"uint256[4]"},{"name":"_sortitionSumTreeK","type":"uint256"}],"name":"createSubcourt","outputs":[],"payable":false,"stateMutability":"nonpayable","type":"function"},{"constant":false,"inputs":[{"name":"_subcourtID","type":"uint96"},{"name":"_minStake","type":"uint256"}],"name":"changeSubcourtMinStake","outputs":[],"payable":false,"stateMutability":"nonpayable","type":"function"},{"constant":false,"inputs":[{"name":"_subcourtID","type":"uint96"},{"name":"_alpha","type":"uint256"}],"name":"changeSubcourtAlpha","outputs":[],"payable":false,"stateMutability":"nonpayable","type":"function"},{"constant":false,"inputs":[{"name":"_subcourtID","type":"uint96"},{"name":"_feeForJuror","type":"uint256"}],"name":"changeSubcourtJurorFee","outputs":[],"payable":false,"stateMutability":"nonpayable","type":"function"},{"constant":false,"inputs":[{"name":"_subcourtID","type":"uint96"},{"name":"_jurorsForCourtJump","type":"uint256"}],"name":"changeSubcourtJurorsForJump","outputs":[],"payable":false,"stateMutability":"nonpayable","type":"function"},{"constant":false,"inputs":[{"name":"_subcourtID","type":"uint96"},{"name":"_timesPerPeriod","type":"uint256[4]"}],"name":"changeSubcourtTimesPerPeriod","outputs":[],"payable":false,"stateMutability":"nonpayable","type":"function"},{"constant":false,"inputs":[],"name":"passPhase","outputs":[],"payable":false,"stateMutability":"nonpayable","type":"function"},{"constant":false,"inputs":[{"name":"_disputeID","type":"uint256"}],"name":"passPeriod","outputs":[],"payable":false,"stateMutability":"nonpayable","type":"function"},{"constant":false,"inputs":[{"name":"_subcourtID","type":"uint96"},{"name":"_stake","type":"uint128"}],"name":"setStake","outputs":[],"payable":false,"stateMutability":"nonpayable","type":"function"},{"constant":false,"inputs":[{"name":"_iterations","type":"uint256"}],"name":"executeDelayedSetStakes","outputs":[],"payable":false,"stateMutability":"nonpayable","type":"function"},{"constant":false,"inputs":[{"name":"_disputeID","type":"uint256"},{"name":"_iterations","type":"uint256"}],"name":"drawJurors","outputs":[],"payable":false,"stateMutability":"nonpayable","type":"function"},{"constant":false,"inputs":[{"name":"_disputeID","type":"uint256"},{"name":"_voteIDs","type":"uint256[]"},{"name":"_commit","type":"bytes32"}],"name":"castCommit","outputs":[],"payable":false,"stateMutability":"nonpayable","type":"function"},{"constant":false,"inputs":[{"name":"_disputeID","type":"uint256"},{"name":"_voteIDs","type":"uint256[]"},{"name":"_choice","type":"uint256"},{"name":"_salt","type":"uint256"}],"name":"castVote","outputs":[],"payable":false,"stateMutability":"nonpayable","type":"function"},{"constant":false,"inputs":[{"name":"_disputeID","type":"uint256"},{"name":"_appeal","type":"uint256"},{"name":"_iterations","type":"uint256"}],"name":"execute","outputs":[],"payable":false,"stateMutability":"nonpayable","type":"function"},{"constant":false,"inputs":[{"name":"_disputeID","type":"uint256"}],"name":"executeRuling","outputs":[],"payable":false,"stateMutability":"nonpayable","type":"function"},{"constant":false,"inputs":[{"name":"_numberOfChoices","type":"uint256"},{"name":"_extraData","type":"bytes"}],"name":"createDispute","outputs":[{"name":"disputeID","type":"uint256"}],"payable":true,"stateMutability":"payable","type":"function"},{"constant":false,"inputs":[{"name":"_disputeID","type":"uint256"},{"name":"_extraData","type":"bytes"}],"name":"appeal","outputs":[],"payable":true,"stateMutability":"payable","type":"function"},{"constant":false,"inputs":[{"name":"_owner","type":"address"}],"name":"proxyPayment","outputs":[{"name":"allowed","type":"bool"}],"payable":true,"stateMutability":"payable","type":"function"},{"constant":false,"inputs":[{"name":"_from","type":"address"},{"name":"_to","type":"address"},{"name":"_amount","type":"uint256"}],"name":"onTransfer","outputs":[{"name":"allowed","type":"bool"}],"payable":false,"stateMutability":"nonpayable","type":"function"},{"constant":false,"inputs":[{"name":"_owner","type":"address"},{"name":"_spender","type":"address"},{"name":"_amount","type":"uint256"}],"name":"onApprove","outputs":[{"name":"allowed","type":"bool"}],"payable":false,"stateMutability":"nonpayable","type":"function"},{"constant":true,"inputs":[{"name":"_extraData","type":"bytes"}],"name":"arbitrationCost","outputs":[{"name":"cost","type":"uint256"}],"payable":false,"stateMutability":"view","type":"function"},{"constant":true,"inputs":[{"name":"_disputeID","type":"uint256"},{"name":"_extraData","type":"bytes"}],"name":"appealCost","outputs":[{"name":"cost","type":"uint256"}],"payable":false,"stateMutability":"view","type":"function"},{"constant":true,"inputs":[{"name":"_disputeID","type":"uint256"}],"name":"appealPeriod","outputs":[{"name":"start","type":"uint256"},{"name":"end","type":"uint256"}],"payable":false,"stateMutability":"view","type":"function"},{"constant":true,"inputs":[{"name":"_disputeID","type":"uint256"}],"name":"disputeStatus","outputs":[{"name":"status","type":"uint8"}],"payable":false,"stateMutability":"view","type":"function"},{"constant":true,"inputs":[{"name":"_disputeID","type":"uint256"}],"name":"currentRuling","outputs":[{"name":"ruling","type":"uint256"}],"payable":false,"stateMutability":"view","type":"function"},{"constant":true,"inputs":[{"name":"_subcourtID","type":"uint96"}],"name":"getSubcourt","outputs":[{"name":"children","type":"uint256[]"},{"name":"timesPerPeriod","type":"uint256[4]"}],"payable":false,"stateMutability":"view","type":"function"},{"constant":true,"inputs":[{"name":"_disputeID","type":"uint256"},{"name":"_appeal","type":"uint256"},{"name":"_voteID","type":"uint256"}],"name":"getVote","outputs":[{"name":"account","type":"address"},{"name":"commit","type":"bytes32"},{"name":"choice","type":"uint256"},{"name":"voted","type":"bool"}],"payable":false,"stateMutability":"view","type":"function"},{"constant":true,"inputs":[{"name":"_disputeID","type":"uint256"},{"name":"_appeal","type":"uint256"}],"name":"getVoteCounter","outputs":[{"name":"winningChoice","type":"uint256"},{"name":"counts","type":"uint256[]"},{"name":"tied","type":"bool"}],"payable":false,"stateMutability":"view","type":"function"},{"constant":true,"inputs":[{"name":"_disputeID","type":"uint256"}],"name":"getDispute","outputs":[{"name":"votesLengths","type":"uint256[]"},{"name":"tokensAtStakePerJuror","type":"uint256[]"},{"name":"totalFeesForJurors","type":"uint256[]"},{"name":"votesInEachRound","type":"uint256[]"},{"name":"repartitionsInEachRound","type":"uint256[]"},{"name":"penaltiesInEachRound","type":"uint256[]"}],"payable":false,"stateMutability":"view","type":"function"},{"constant":true,"inputs":[{"name":"_account","type":"address"}],"name":"getJuror","outputs":[{"name":"subcourtIDs","type":"uint96[]"}],"payable":false,"stateMutability":"view","type":"function"},{"constant":true,"inputs":[{"name":"_account","type":"address"},{"name":"_subcourtID","type":"uint96"}],"name":"stakeOf","outputs":[{"name":"stake","type":"uint256"}],"payable":false,"stateMutability":"view","type":"function"}],"bytecode":"0x608060405234801561001057600080fd5b50615c3680620000216000396000f3006080604052600436106102af5763ffffffff60e060020a600035041662f5822c81146102b4578063023d44df146102d757806303432744146102fe5780630b274f2e146103135780630c340a24146103285780630d44cf791461035957806310f169e81461036e578063115d5376146103aa5780631b92bbbe146103c25780631c3db16d146103d75780631f5a0dd2146103ef5780632d29a47b146104445780632ea7b4d0146104625780633850f804146104775780633e1d09be146104a157806340026c87146104c557806349912f88146105635780634a393149146105b4578063564a565d146105f2578063572603641461067657806359354c77146106995780635bc24dd3146106bd5780635c92e2f6146106e15780635e4a627d146107085780636a4f8f391461071d578063751accd014610732578063823cfd7014610763578063840bc19c1461077b57806385c855f3146107905780638bb04875146107bd5780638ce7ff4a146107d557806395e9769a1461082557806396d92a72146108a55780639929057b146108c6578063a2473cc1146108de578063a57366e71461090b578063afe15cfb1461092f578063b1c9fe6e14610960578063b4a6160814610975578063b78a80ff1461098a578063b888adfa146109db578063c057eca7146109f0578063c108f3b414610a05578063c13517e114610a1a578063c5e4ccc414610a6b578063cbd8866314610a80578063ce9e773014610a9b578063d4155d1f14610ad3578063da682aeb14610b44578063dca5f6b014610b6e578063dd5e5cb514610b8f578063e3a96cbd14610ba7578063e3b0073e14610d6c578063e4c0aaf414610ded578063eaff425a14610e0e578063f23f16e614610e23578063f48c305414610e81578063f66d685a14610e95578063f7434ea914610eaa578063fbf405b014610f03575b600080fd5b3480156102c057600080fd5b506102d5600160a060020a0360043516610f18565b005b3480156102e357600080fd5b506102ec610f51565b60408051918252519081900360200190f35b34801561030a57600080fd5b506102ec610f57565b34801561031f57600080fd5b506102d5610f5d565b34801561033457600080fd5b5061033d6114e7565b60408051600160a060020a039092168252519081900360200190f35b34801561036557600080fd5b506102ec6114f6565b34801561037a57600080fd5b506103866004356114fc565b6040518082600281111561039657fe5b60ff16815260200191505060405180910390f35b3480156103b657600080fd5b506102d560043561155d565b3480156103ce57600080fd5b506102ec611c77565b3480156103e357600080fd5b506102ec600435611c7d565b3480156103fb57600080fd5b50610407600435611cef565b604080516001606060020a0390971687529415156020870152858501939093526060850191909152608084015260a0830152519081900360c00190f35b34801561045057600080fd5b506102d5600435602435604435611d41565b34801561046e57600080fd5b506102ec612862565b34801561048357600080fd5b506102d5600480359060248035908101910135604435606435612868565b3480156104ad57600080fd5b506102d56001606060020a0360043516602435612d9d565b3480156104d157600080fd5b506104e66001606060020a0360043516612f8f565b604051806020810183608080838360005b8381101561050f5781810151838201526020016104f7565b50505050905001828103825284818151815260200191508051906020019060200280838360005b8381101561054e578181015183820152602001610536565b50505050905001935050505060405180910390f35b60408051602060046024803582810135601f81018590048502860185019096528585526102d59583359536956044949193909101919081908401838280828437509497506130519650505050505050565b3480156105c057600080fd5b506105de600160a060020a0360043581169060243516604435613434565b604080519115158252519081900360200190f35b3480156105fe57600080fd5b5061060a600435613528565b604080516001606060020a038a168152600160a060020a03891660208201529081018790526060810186600481111561063f57fe5b60ff168152602001858152602001848152602001838152602001821515151581526020019850505050505050505060405180910390f35b34801561068257600080fd5b506102d56001606060020a03600435166024613580565b3480156106a557600080fd5b506102d56001606060020a03600435166024356135d4565b3480156106c957600080fd5b506102d56001606060020a036004351660243561361d565b3480156106ed57600080fd5b506102d5600480359060248035908101910135604435613666565b34801561071457600080fd5b506102ec613882565b34801561072957600080fd5b5061033d613888565b34801561073e57600080fd5b506102d560048035600160a060020a0316906024803591604435918201910135613897565b34801561076f57600080fd5b506102d56004356138f0565b34801561078757600080fd5b506102ec61390c565b34801561079c57600080fd5b506102d56001606060020a03600435166001608060020a0360243516613917565b3480156107c957600080fd5b506102d5600435613931565b3480156107e157600080fd5b506107f3600435602435604435613ab8565b60408051600160a060020a03909516855260208501939093528383019190915215156060830152519081900360800190f35b34801561083157600080fd5b506040805160808082019092526102d59160048035600160a060020a039081169360243582169360443590921692606435926084359260a43515159260c4359260e435926101043592610124359236926101c4916101449084908390839080828437509396505092359350613b3592505050565b3480156108b157600080fd5b506102d5600160a060020a0360043516613e8b565b3480156108d257600080fd5b506102d5600435613fda565b3480156108ea57600080fd5b506102ec600160a060020a03600435166001606060020a03602435166140c7565b34801561091757600080fd5b506102d56001606060020a0360043516602435614174565b34801561093b57600080fd5b506109476004356141bd565b6040805192835260208301919091528051918290030190f35b34801561096c57600080fd5b5061038661423b565b34801561098157600080fd5b506102ec61424b565b34801561099657600080fd5b506109a2600435614250565b60408051600160a060020a0390941684526001606060020a0390921660208401526001608060020a031682820152519081900360600190f35b3480156109e757600080fd5b506102ec61428e565b3480156109fc57600080fd5b506102ec614294565b348015610a1157600080fd5b506102ec61429a565b60408051602060046024803582810135601f81018590048502860185019096528585526102ec9583359536956044949193909101919081908401838280828437509497506142a09650505050505050565b348015610a7757600080fd5b506102ec61454f565b348015610a8c57600080fd5b506102d5600435602435614555565b348015610aa757600080fd5b506102d56001606060020a0360043516602435151560443560643560843560a43560c46101443561487b565b348015610adf57600080fd5b50610af4600160a060020a0360043516614b4c565b60408051602080825283518183015283519192839290830191858101910280838360005b83811015610b30578181015183820152602001610b18565b505050509050019250505060405180910390f35b348015610b5057600080fd5b506105de600160a060020a0360043581169060243516604435614bef565b348015610b7a57600080fd5b50610947600160a060020a0360043516614bf8565b348015610b9b57600080fd5b506102d5600435614c14565b348015610bb357600080fd5b50610bbf600435614c30565b6040518080602001806020018060200180602001806020018060200187810387528d818151815260200191508051906020019060200280838360005b83811015610c13578181015183820152602001610bfb565b5050505090500187810386528c818151815260200191508051906020019060200280838360005b83811015610c52578181015183820152602001610c3a565b5050505090500187810385528b818151815260200191508051906020019060200280838360005b83811015610c91578181015183820152602001610c79565b5050505090500187810384528a818151815260200191508051906020019060200280838360005b83811015610cd0578181015183820152602001610cb8565b50505050905001878103835289818151815260200191508051906020019060200280838360005b83811015610d0f578181015183820152602001610cf7565b50505050905001878103825288818151815260200191508051906020019060200280838360005b83811015610d4e578181015183820152602001610d36565b505050509050019c5050505050505050505050505060405180910390f35b348015610d7857600080fd5b50610d87600435602435614e86565b604051808481526020018060200183151515158152602001828103825284818151815260200191508051906020019060200280838360005b83811015610dd7578181015183820152602001610dbf565b5050505090500194505050505060405180910390f35b348015610df957600080fd5b506102d5600160a060020a0360043516614f51565b348015610e1a57600080fd5b506102ec614f8a565b348015610e2f57600080fd5b5060408051602060046024803582810135601f81018590048502860185019096528585526102ec958335953695604494919390910191908190840183828082843750949750614f8f9650505050505050565b6105de600160a060020a03600435166150bc565b348015610ea157600080fd5b506105de6150c2565b348015610eb657600080fd5b506040805160206004803580820135601f81018490048402850184019095528484526102ec9436949293602493928401919081908401838280828437509497506150cb9650505050505050565b348015610f0f57600080fd5b5061033d615112565b603354600160a060020a03163314610f2f57600080fd5b60348054600160a060020a031916600160a060020a0392909216919091179055565b60385481565b60375481565b600060355460a060020a900460ff166002811115610f7757fe5b141561117c57603a5460365442031015610ff3576040805160e560020a62461bcd02815260206004820152602c60248201527f546865206d696e696d756d207374616b696e672074696d6520686173206e6f74604482015260a160020a6b103830b9b9b2b2103cb2ba1702606482015290519081900360840190fd5b603754600010611060576040805160e560020a62461bcd02815260206004820152602760248201527f546865726520617265206e6f2064697370757465732074686174206e65656420604482015260c960020a66353ab937b9399702606482015290519081900360840190fd5b603560009054906101000a9004600160a060020a0316600160a060020a0316631c77c58c6040518163ffffffff1660e060020a028152600401602060405180830381600087803b1580156110b357600080fd5b505af11580156110c7573d6000803e3d6000fd5b505050506040513d60208110156110dd57600080fd5b50516035546040805160e060020a6378ab865d0281529051600160a060020a03909216916378ab865d916004808201926020929091908290030181600087803b15801561112957600080fd5b505af115801561113d573d6000803e3d6000fd5b505050506040513d602081101561115357600080fd5b505101603855603580546001919060a060020a60ff02191660a060020a835b021790555061148e565b600160355460a060020a900460ff16600281111561119657fe5b14156113a85760385443101580156112295750603560009054906101000a9004600160a060020a0316600160a060020a03166374ce90676040518163ffffffff1660e060020a028152600401602060405180830381600087803b1580156111fc57600080fd5b505af1158015611210573d6000803e3d6000fd5b505050506040513d602081101561122657600080fd5b50515b151561127f576040805160e560020a62461bcd02815260206004820152601f60248201527f52616e646f6d206e756d626572206973206e6f74207265616479207965742e00604482015290519081900360640190fd5b6035546040805160e160020a634191031302815290513092600160a060020a03169163832206269160048083019260209291908290030181600087803b1580156112c857600080fd5b505af11580156112dc573d6000803e3d6000fd5b505050506040513d60208110156112f257600080fd5b505160408051600160a060020a0393909316606060020a026020808501919091526034808501939093528151808503909301835260549093019081905281519192909182918401908083835b6020831061135d5780518252601f19909201916020918201910161133e565b5181516020939093036101000a600019018019909116921691909117905260405192018290039091206039555050603580546002925060a060020a60ff02191660a060020a83611172565b600260355460a060020a900460ff1660028111156113c257fe5b141561148e5760375415806113dd5750603b54603654420310155b151561147d576040805160e560020a62461bcd02815260206004820152605860248201527f546865726520617265207374696c6c20646973707574657320776974686f757460448201527f206a75726f727320616e6420746865206d6178696d756d2064726177696e67206064820152604160020a773a34b6b2903430b9903737ba103830b9b9b2b2103cb2ba1702608482015290519081900360a40190fd5b6035805460a060020a60ff02191690555b426036556035546040517f31f72b44f546d9e7eaec13f65636997665e15f134a81c82924f568f5c0d07b939160a060020a900460ff1690808260028111156114d257fe5b60ff16815260200191505060405180910390a1565b603354600160a060020a031681565b60415481565b60008181526042602052604081206003600282015460ff16600481111561151f57fe5b101561152e5760009150611557565b6004600282015460ff16600481111561154357fe5b10156115525760019150611557565b600291505b50919050565b60435460009082106115a7576040805160e560020a62461bcd02815260206004820152601a6024820152600080516020615b8b833981519152604482015290519081900360640190fd5b50600081815260426020526040812090600282015460ff1660048111156115ca57fe5b14156117b95760048101546001108061163c57508054603d805490916001606060020a03169081106115f857fe5b90600052602060002090600b02016007018160020160009054906101000a900460ff16600481111561162657fe5b6004811061163057fe5b01548160030154420310155b15156116c9576040805160e560020a62461bcd028152602060048201526044602482018190527f5468652065766964656e636520706572696f642074696d6520686173206e6f74908201527f207061737365642079657420616e64206974206973206e6f7420616e20617070606482015260e160020a6332b0b61702608482015290519081900360a40190fd5b60048101805460001981019081106116dd57fe5b600091825260209091200154600882015414611758576040805160e560020a62461bcd02815260206004820152602960248201527f546865206469737075746520686173206e6f742066696e697368656420647261604482015260b960020a683bb4b733903cb2ba1702606482015290519081900360840190fd5b8054603d805490916001606060020a031690811061177257fe5b600091825260209091206002600b90920201015460ff16611794576002611797565b60015b60028201805460ff191660018360048111156117af57fe5b0217905550611c2d565b6001600282015460ff1660048111156117ce57fe5b1415611909578054603d805490916001606060020a03169081106117ee57fe5b90600052602060002090600b02016007018160020160009054906101000a900460ff16600481111561181c57fe5b6004811061182657fe5b01548160030154420310158061185e5750600481018054600019810190811061184b57fe5b6000918252602090912001546009820154145b15156118f6576040805160e560020a62461bcd02815260206004820152605060248201527f54686520636f6d6d697420706572696f642074696d6520686173206e6f74207060448201527f61737365642079657420616e64206e6f74206576657279206a75726f722068616064820152608160020a6f399031b7b6b6b4ba3a32b2103cb2ba1702608482015290519081900360a40190fd5b6002818101805460ff19166001836117af565b60028082015460ff16600481111561191d57fe5b1415611ab4578054603d805490916001606060020a031690811061193d57fe5b90600052602060002090600b02016007018160020160009054906101000a900460ff16600481111561196b57fe5b6004811061197557fe5b0154816003015442031015806119cd5750600481018054600019810190811061199a57fe5b6000918252602090912001546004820154600a830180549091600019019081106119c057fe5b9060005260206000200154145b1515611a5f576040805160e560020a62461bcd02815260206004820152604a60248201527f54686520766f746520706572696f642074696d6520686173206e6f742070617360448201527f7365642079657420616e64206e6f74206576657279206a75726f722068617320606482015260b160020a693b37ba32b2103cb2ba1702608482015290519081900360a40190fd5b600281018054600360ff199091161790558054604051606060020a909104600160a060020a03169083907fa5d41b970d849372be1da1481ffd78d162bfe57a7aa2fe4e5fb73481fa5ac24f90600090a3611c2d565b6003600282015460ff166004811115611ac957fe5b1415611bac578054603d805490916001606060020a0316908110611ae957fe5b90600052602060002090600b02016007018160020160009054906101000a900460ff166004811115611b1757fe5b60048110611b2157fe5b0154600382015442031015611b96576040805160e560020a62461bcd02815260206004820152602a60248201527f5468652061707065616c20706572696f642074696d6520686173206e6f742070604482015260b160020a6930b9b9b2b2103cb2ba1702606482015290519081900360840190fd5b6002810180546004919060ff19166001836117af565b6004600282015460ff166004811115611bc157fe5b1415611c2d576040805160e560020a62461bcd02815260206004820152602a60248201527f546865206469737075746520697320616c726561647920696e20746865206c61604482015260b160020a6939ba103832b934b7b21702606482015290519081900360840190fd5b42600382015560028101546040518391600080516020615bab8339815191529160ff9091169080826004811115611c6057fe5b60ff16815260200191505060405180910390a25050565b603b5481565b60008181526042602052604081206005810180546000198101908110611c9f57fe5b600091825260209091206002600390920201015460ff16611ce5576005810180546000198101908110611cce57fe5b906000526020600020906003020160000154611ce8565b60005b9392505050565b603d805482908110611cfd57fe5b60009182526020909120600b90910201805460028201546003830154600484015460058501546006909501546001606060020a03909416955060ff90921693909286565b600080808080808080808b60048060008381526042602052604090206002015460ff166004811115611d6f57fe5b14611d7957600080fd5b603c805460ff1916905560008e8152604260205260409020600b81018054919c508d918f908110611da657fe5b90600052602060002001540199508a600b018d815481101515611dc557fe5b90600052602060002001548a10151515611dde57600080fd5b600c8b0180548e908110611dee57fe5b600091825260208220015460058d018054919b509199508998506000198101908110611e1657fe5b600091825260209091206002600390920201015460ff16158015611e98575060058b0180548e908110611e4557fe5b906000526020600020906003020160010160008c60050160018e6005018054905003815481101515611e7357fe5b9060005260206000209060030201600001548152602001908152602001600020546000145b15611ee45760048b0180548e908110611ead57fe5b6000918252602090912001548a1115611edf5760048b0180548e908110611ed057fe5b60009182526020909120015499505b611f82565b60048b0180548e908110611ef457fe5b600091825260209091200154600b8c0180548f908110611f1057fe5b90600052602060002001541015611f2957600080611f33565b611f338e8e615121565b60048d018054929a50909850908e908110611f4a57fe5b6000918252602090912001546002028a1115611f825760048b0180548e908110611f7057fe5b60009182526020909120015460020299505b600b8b0180548e908110611f9257fe5b906000526020600020015495505b898610156127e45760048b0180548e908110611fb857fe5b906000526020600020018b6004018e815481101515611fd357fe5b60009182526020909120015487811515611fe957fe5b06815481101515611ff657fe5b60009182526020909120600490910201600381015490955060ff168015612076575060058b018054600019810190811061202c57fe5b90600052602060002090600302016000015485600201541480612076575060058b018054600019810190811061205e57fe5b600091825260209091206002600390920201015460ff165b156121e25760048b0180548e90811061208b57fe5b60009182526020909120015486106121dd5760345485546040805160e060020a63a9059cbb028152600160a060020a039283166004820152602481018c90529051919092169163a9059cbb9160448083019260209291908290030181600087803b1580156120f857600080fd5b505af115801561210c573d6000803e3d6000fd5b505050506040513d602081101561212257600080fd5b50508454604051600160a060020a039091169088156108fc029089906000818181858888f19350505050508d8560000160009054906101000a9004600160a060020a0316600160a060020a0316600080516020615beb8339815191528a8a604051808381526020018281526020019250505060405180910390a360068b0180548e9081106121ac57fe5b60009182526020808320909101548754600160a060020a031683526044909152604090912060020180549190910390555b6125a2565b60048b0180548e9081106121f257fe5b6000918252602090912001548610156125a25760345485546040805160e060020a6370a08231028152600160a060020a039283166004820152905191909216916370a082319160248083019260209291908290030181600087803b15801561225957600080fd5b505af115801561226d573d6000803e3d6000fd5b505050506040513d602081101561228357600080fd5b505160068c0180548f90811061229557fe5b9060005260206000200154116122c55760068b0180548e9081106122b557fe5b9060005260206000200154612346565b60345485546040805160e060020a6370a08231028152600160a060020a039283166004820152905191909216916370a082319160248083019260209291908290030181600087803b15801561231957600080fd5b505af115801561232d573d6000803e3d6000fd5b505050506040513d602081101561234357600080fd5b50515b60345486546040805160e060020a6323b872dd028152600160a060020a0392831660048201523060248201526044810185905290519397509116916323b872dd916064808201926020929091908290030181600087803b1580156123a957600080fd5b505af11580156123bd573d6000803e3d6000fd5b505050506040513d60208110156123d357600080fd5b8101908080519060200190929190505050508d8560000160009054906101000a9004600160a060020a0316600160a060020a0316600080516020615beb833981519152866000036000604051808381526020018281526020019250505060405180910390a360068b018054998501998e90811061244c57fe5b60009182526020808320909101548754600160a060020a0390811684526044835260408085206002018054939093039092558854811680855282852060010154603454845160e060020a6370a0823102815260048101939093529351909593909216936370a082319360248084019492938390030190829087803b1580156124d357600080fd5b505af11580156124e7573d6000803e3d6000fd5b505050506040513d60208110156124fd57600080fd5b505110806125105750600385015460ff16155b156125a257600092505b8454600160a060020a03166000908152604460205260409020548310156125a2578454600160a060020a0316600081815260446020526040902080546125969291908690811061256657fe5b9060005260206000209060029182820401919006600c029054906101000a90046001606060020a031660006152af565b5060019092019161251a565b60018b6004018e8154811015156125b557fe5b600091825260209091200154038614156127d957600a8b0180548e9081106125d957fe5b906000526020600020015460001480612683575060058b018054600019810190811061260157fe5b600091825260209091206002600390920201015460ff16158015612683575060058b0180548e90811061263057fe5b906000526020600020906003020160010160008c60050160018e600501805490500381548110151561265e57fe5b9060005260206000209060030201600001548152602001908152602001600020546000145b156127a057603360009054906101000a9004600160a060020a0316600160a060020a03166108fc8c6007018f8154811015156126bb57fe5b90600052602060002001549081150290604051600060405180830381858888f1935050505050603460009054906101000a9004600160a060020a0316600160a060020a031663a9059cbb603360009054906101000a9004600160a060020a03168b6040518363ffffffff1660e060020a0281526004018083600160a060020a0316600160a060020a0316815260200182815260200192505050602060405180830381600087803b15801561276e57600080fd5b505af1158015612782573d6000803e3d6000fd5b505050506040513d602081101561279857600080fd5b506127d99050565b898660010110156127d957888b600c018e8154811015156127bd57fe5b6000918252602090912001556127d38e8e615121565b90985096505b600190950194611fa0565b888b600c018e8154811015156127f657fe5b906000526020600020015414151561282757888b600c018e81548110151561281a57fe5b6000918252602090912001555b898b600b018e81548110151561283957fe5b6000918252602090912001555050603c805460ff19166001179055505050505050505050505050565b61271081565b600080808760028060008381526042602052604090206002015460ff16600481111561289057fe5b1461289a57600080fd5b60008a8152604260205260408120955088116128b557600080fd5b6001850154871115612954576040805160e560020a62461bcd02815260206004820152605160248201527f5468652063686f6963652068617320746f206265206c657373207468616e206f60448201527f7220657175616c20746f20746865206e756d626572206f662063686f696365736064820152607960020a70103337b9103a3432903234b9b83aba329702608482015290519081900360a40190fd5b600093505b87841015612c8f57600485018054339190600019810190811061297857fe5b906000526020600020018a8a87818110151561299057fe5b905060200201358154811015156129a357fe5b6000918252602090912060049091020154600160a060020a031614612a00576040805160e560020a62461bcd02815260206004820152601f6024820152600080516020615bcb833981519152604482015290519081900360640190fd5b8454603d805490916001606060020a0316908110612a1a57fe5b600091825260209091206002600b90920201015460ff161580612aa85750604080518881526020810188905281519081900390910190206004860180546000198101908110612a6557fe5b906000526020600020018a8a878181101515612a7d57fe5b90506020020135815481101515612a9057fe5b90600052602060002090600402016001015460001916145b1515612b24576040805160e560020a62461bcd02815260206004820152602481018290527f54686520636f6d6d6974206d757374206d61746368207468652063686f69636560448201527f20696e20737562636f7572747320776974682068696464656e20766f7465732e606482015290519081900360840190fd5b6004850180546000198101908110612b3857fe5b906000526020600020018989868181101515612b5057fe5b90506020020135815481101515612b6357fe5b600091825260209091206003600490920201015460ff1615612bc7576040805160e560020a62461bcd0281526020600482015260126024820152607160020a712b37ba329030b63932b0b23c9031b0b9ba1702604482015290519081900360640190fd5b6004850180548891906000198101908110612bde57fe5b906000526020600020018a8a878181101515612bf657fe5b90506020020135815481101515612c0957fe5b600091825260209091206004918202016002019190915585018054600191906000198101908110612c3657fe5b906000526020600020018a8a878181101515612c4e57fe5b90506020020135815481101515612c6157fe5b60009182526020909120600490910201600301805460ff191691151591909117905560019390930192612959565b6004850154600a860180548a9260001901908110612ca957fe5b6000918252602090912001805490910190556005850180546000198101908110612ccf57fe5b600091825260208083208a845260016003909302019182019052604090912080548a0190558054909350871415612d1f57600283015460ff1615612d1a5760028301805460ff191690555b612d91565b82546000908152600184016020526040808220548983529120541415612d6157600283015460ff161515612d1a5760028301805460ff19166001179055612d91565b82546000908152600184016020526040808220548983529120541115612d915786835560028301805460ff191690555b50505050505050505050565b603354600090600160a060020a03163314612db757600080fd5b6001606060020a0383161580612e1e575081603d80856001606060020a0316815481101515612de257fe5b60009182526020909120600b909102015481546001606060020a03909116908110612e0957fe5b90600052602060002090600b02016003015411155b1515612e2957600080fd5b5060005b603d80546001606060020a038516908110612e4457fe5b90600052602060002090600b020160010180549050811015612f5c5781603d80856001606060020a0316815481101515612e7a57fe5b90600052602060002090600b020160010183815481101515612e9857fe5b9060005260206000200154815481101515612eaf57fe5b90600052602060002090600b02016003015410151515612f54576040805160e560020a62461bcd02815260206004820152604960248201527f4120737562636f7572742063616e6e6f742062652074686520706172656e742060448201527f6f66206120737562636f75727420776974682061206c6f776572206d696e696d606482015260b960020a683ab69039ba30b5b29702608482015290519081900360a40190fd5b600101612e2d565b81603d846001606060020a0316815481101515612f7557fe5b90600052602060002090600b020160030181905550505050565b6060612f99615954565b6000603d846001606060020a0316815481101515612fb357fe5b90600052602060002090600b020190508060010180548060200260200160405190810160405280929190818152602001828054801561301157602002820191906000526020600020905b815481526020019060010190808311612ffd575b505060408051608081019182905294975060078601935060049250905082845b815481526020019060010190808311613031575050505050915050915091565b6000828261305f8282614f8f565b3410156130c7576040805160e560020a62461bcd02815260206004820152602560248201527f4e6f7420656e6f7567682045544820746f20636f7665722061707065616c2063604482015260d960020a6437b9ba399702606482015290519081900360840190fd5b8460038060008381526042602052604090206002015460ff1660048111156130eb57fe5b146130f557600080fd5b60008781526042602052604090208054909550606060020a9004600160a060020a03163314613188576040805160e560020a62461bcd02815260206004820152602e60248201527f43616e206f6e6c792062652063616c6c656420627920746865206172626974726044820152609160020a6d30b136329031b7b73a3930b1ba1702606482015290519081900360840190fd5b8454603d805490916001606060020a03169081106131a257fe5b600091825260209091206006600b90920201015460048601805460001981019081106131ca57fe5b60009182526020909120015410613221578454603d805490916001606060020a03169081106131f557fe5b60009182526020909120600b909102015485546001606060020a0319166001606060020a039091161785555b60028501805460ff191690554260038601558454603d805490916001606060020a031690811061324d57fe5b90600052602060002090600b0201600501543481151561326957fe5b60048701805492909104916132818260018301615973565b8154811061328b57fe5b90600052602060002001816132a09190615997565b50600585018054600191906132b7828285016159c3565b815481106132c157fe5b60009182526020909120600390910201600201805460ff19169115159190911790558454603d8054600688019261271092916001606060020a0390911690811061330757fe5b600091825260209091206004600b9092020101548754603d805490916001606060020a031690811061333557fe5b90600052602060002090600b0201600301540281151561335157fe5b825460018181018555600094855260208086209490930493909101929092556007880180548084018255908452818420349101556008880183905560098801839055600a88018054808401825590845281842001839055600b88018054808401825590845281842001839055600c88018054808401825590845290832001829055603780549091019055604051339189917f9c9b64db9e130f48381bf697abf638e73117dbfbfd7a4484f2da3ba188f4187d9190a3604080516000815290518891600080516020615bab833981519152919081900360200190a250505050505050565b603c54600090819060ff161561351b576034546040805160e060020a6370a08231028152600160a060020a0388811660048301529151869392909216916370a08231916024808201926020929091908290030181600087803b15801561349957600080fd5b505af11580156134ad573d6000803e3d6000fd5b505050506040513d60208110156134c357600080fd5b5051600160a060020a038716600090815260446020526040902060010154919003915081108061350d5750600160a060020a03851660009081526044602052604090206002015481105b1561351b5760009150613520565b600191505b509392505050565b6042602052600090815260409020805460018201546002830154600384015460088501546009860154600d909601546001606060020a03861696606060020a909604600160a060020a03169560ff9485169490911688565b603354600160a060020a0316331461359757600080fd5b80603d836001606060020a03168154811015156135b057fe5b90600052602060002090600b02016007019060046135cf9291906159ef565b505050565b603354600160a060020a031633146135eb57600080fd5b80603d836001606060020a031681548110151561360457fe5b90600052602060002090600b0201600501819055505050565b603354600160a060020a0316331461363457600080fd5b80603d836001606060020a031681548110151561364d57fe5b90600052602060002090600b0201600401819055505050565b6000808560018060008381526042602052604090206002015460ff16600481111561368d57fe5b1461369757600080fd5b600088815260426020526040902093508415156136b357600080fd5b600092505b8583101561386f5760048401805433919060001981019081106136d757fe5b9060005260206000200188888681811015156136ef57fe5b9050602002013581548110151561370257fe5b6000918252602090912060049091020154600160a060020a03161461375f576040805160e560020a62461bcd02815260206004820152601f6024820152600080516020615bcb833981519152604482015290519081900360640190fd5b60048401805460009190600019810190811061377757fe5b90600052602060002001888886818110151561378f57fe5b905060200201358154811015156137a257fe5b60009182526020909120600160049092020101541461380b576040805160e560020a62461bcd02815260206004820152601c60248201527f416c726561647920636f6d6d6974746564207468697320766f74652e00000000604482015290519081900360640190fd5b600484018054869190600019810190811061382257fe5b90600052602060002001888886818110151561383a57fe5b9050602002013581548110151561384d57fe5b60009182526020909120600160049092020181019190915592909201916136b8565b5050506009018054909201909155505050565b60395481565b603554600160a060020a031681565b603354600160a060020a031633146138ae57600080fd5b83600160a060020a03168383836040518083838082843782019150509250505060006040518083038185875af19250505015156138ea57600080fd5b50505050565b603354600160a060020a0316331461390757600080fd5b603a55565b600160ff60020a0381565b6139223383836152af565b151561392d57600080fd5b5050565b6000808260048060008381526042602052604090206002015460ff16600481111561395857fe5b1461396257600080fd5b6000858152604260205260409020600d81015490945060ff16156139ce576040805160e560020a62461bcd0281526020600482015260186024820152604160020a77293ab634b7339030b63932b0b23c9032bc32b1baba32b21702604482015290519081900360640190fd5b600d8401805460ff1916600117905560058401805460001981019081106139f157fe5b600091825260209091206002600390920201015460ff16613a37576005840180546000198101908110613a2057fe5b906000526020600020906003020160000154613a3a565b60005b84546040805160e160020a63188d362b02815260048101899052602481018490529051929550606060020a909104600160a060020a03169163311a6c569160448082019260009290919082900301818387803b158015613a9957600080fd5b505af1158015613aad573d6000803e3d6000fd5b505050505050505050565b60008381526042602052604081206004018054829182918291829188908110613add57fe5b9060005260206000200186815481101515613af457fe5b60009182526020909120600490910201805460018201546002830154600390930154600160a060020a039092169b909a5091985060ff169650945050505050565b60008054610100900460ff1680613b4f5750613b4f615891565b80613b5d575060005460ff16155b1515613bcd576040805160e560020a62461bcd02815260206004820152602e60248201527f436f6e747261637420696e7374616e63652068617320616c72656164792062656044820152609260020a6d195b881a5b9a5d1a585b1a5e995902606482015290519081900360840190fd5b600060019054906101000a900460ff1690506001600060016101000a81548160ff02191690831515021790555060016000806101000a81548160ff0219169083151502179055508c603360006101000a815481600160a060020a030219169083600160a060020a031602179055508b603460006101000a815481600160a060020a030219169083600160a060020a031602179055508a603560006101000a815481600160a060020a030219169083600160a060020a0316021790555089603a8190555088603b81905550426036819055506001603c60006101000a81548160ff0219169083151502179055506001604081905550603d6101006040519081016040528060006001606060020a031681526020016000604051908082528060200260200182016040528015613d0b578160200160208202803883390190505b5081528a1515602080830191909152604082018b9052606082018a90526080820189905260a0820188905260c0909101869052825460018082018086556000958652948390208451600b9093020180546001606060020a0319166001606060020a039093169290921782558383015180519293613d8e9392850192910190615a29565b50604082015160028201805460ff191691151591909117905560608201516003820155608082015160048083019190915560a0830151600583015560c0830151600683015560e0830151613de791600784019190615a64565b50506040805160e160020a63483abc4f028152603e600482015260006024820181905260448201879052915173__SortitionSumTreeFactory_______________9450639075789e935060648083019392829003018186803b158015613e4c57600080fd5b505af4158015613e60573d6000803e3d6000fd5b5050600080549315156101000261ff0019909416939093179092555050505050505050505050505050565b603354600160a060020a03163314613ea257600080fd5b60358054600160a060020a031916600160a060020a038316179055600160355460a060020a900460ff166002811115613ed757fe5b1415613fd757603560009054906101000a9004600160a060020a0316600160a060020a0316631c77c58c6040518163ffffffff1660e060020a028152600401602060405180830381600087803b158015613f3057600080fd5b505af1158015613f44573d6000803e3d6000fd5b505050506040513d6020811015613f5a57600080fd5b50516035546040805160e060020a6378ab865d0281529051600160a060020a03909216916378ab865d916004808201926020929091908290030181600087803b158015613fa657600080fd5b505af1158015613fba573d6000803e3d6000fd5b505050506040513d6020811015613fd057600080fd5b5051016038555b50565b6000808080808060355460a060020a900460ff166002811115613ff957fe5b1461400357600080fd5b6041546001876040540103116140195785614024565b604054604154036001015b604054909550808601945084101561403b57600080fd5b60405492505b838310156140bd576000838152603f602052604090208054600182015491935061408f91600160a060020a0382169160a060020a90046001606060020a0316906001608060020a03166152af565b506000838152603f60205260408120908155600190810180546001608060020a031916905590920191614041565b5050506040555050565b600073__SortitionSumTreeFactory_______________637521ccb1603e6001606060020a0385166140f9878761589b565b6040805160e060020a63ffffffff8716028152600481019490945260248401929092526044830152516064808301926020929190829003018186803b15801561414157600080fd5b505af4158015614155573d6000803e3d6000fd5b505050506040513d602081101561416b57600080fd5b50519392505050565b603354600160a060020a0316331461418b57600080fd5b80603d836001606060020a03168154811015156141a457fe5b90600052602060002090600b0201600601819055505050565b600081815260426020526040812081906003600282015460ff1660048111156141e257fe5b141561422c5760038101548154603d8054929550916001606060020a0390911690811061420b57fe5b60009182526020909120600a600b9092020101546003820154019150614235565b60009250600091505b50915091565b60355460a060020a900460ff1681565b600481565b603f6020526000908152604090208054600190910154600160a060020a0382169160a060020a90046001606060020a0316906001608060020a031683565b60365481565b603a5481565b60405481565b600080600080846142b0816150cb565b34101561431d576040805160e560020a62461bcd02815260206004820152602a60248201527f4e6f7420656e6f7567682045544820746f20636f766572206172626974726174604482015260b160020a6934b7b71031b7b9ba399702606482015290519081900360840190fd5b614326866158da565b604380546001808201909255600081815260426020526040902080546001606060020a0319166001606060020a0386811691909117811633606060020a02178083559382018d905560028201805460ff19169055426003830155603d8054939b509599509397509550911690811061439a57fe5b90600052602060002090600b020160050154348115156143b657fe5b60048401805492909104916143ce8260018301615973565b815481106143d857fe5b90600052602060002001816143ed9190615997565b5060058201805460019190614404828285016159c3565b8154811061440e57fe5b60009182526020909120600390910201600201805460ff19169115159190911790558154603d8054600685019261271092916001606060020a0390911690811061445457fe5b600091825260209091206004600b9092020101548454603d805490916001606060020a031690811061448257fe5b90600052602060002090600b0201600301540281151561449e57fe5b82546001818101855560009485526020808620949093049390910192909255600785018054808401825590845281842034910155600a85018054808401825590845281842001839055600b85018054808401825590845281842001839055600c85018054808401825590845290832001829055603780549091019055604051339187917f141dfc18aa6a56fc816f44f0e9e2f1ebc92b15ab167770e17db5b084c10ed9959190a35050505092915050565b60435481565b60008080808060028060355460a060020a900460ff16600281111561457657fe5b1461458057600080fd5b8760008060008381526042602052604090206002015460ff1660048111156145a457fe5b146145ae57600080fd5b6043548a106145f5576040805160e560020a62461bcd02815260206004820152601a6024820152600080516020615b8b833981519152604482015290519081900360640190fd5b60008a81526042602052604090206008810154909850808a01975087101561461c57600080fd5b600488018054600019810190811061463057fe5b60009182526020909120015487111561466657600488018054600019810190811061465757fe5b60009182526020909120015496505b876008015495505b8686101561486a5787546039546040805191825260208083018e90528282018a9052815192839003606001832060e060020a6388c1d467028452603e60048501526001606060020a0390941660248401526044830193909352516147349273__SortitionSumTreeFactory_______________926388c1d4679260648083019392829003018186803b15801561470357600080fd5b505af4158015614717573d6000803e3d6000fd5b505050506040513d602081101561472d57600080fd5b5051615928565b60048a0180549297506001606060020a039190911695508691600019810190811061475b57fe5b906000526020600020018781548110151561477257fe5b600091825260209091206004909102018054600160a060020a031916600160a060020a039290921691909117905560068801805460001981019081106147b457fe5b6000918252602080832090910154600160a060020a03881680845260448352604093849020600201805490920190915560048b01548351600019909101815291820189905282518d9391927f6119cf536152c11e0a9a6c22f3953ce4ecc93ee54fa72ffa326ffabded21509b92908290030190a360048801805460019190600019810190811061484057fe5b6000918252602090912001540386141561485f57603780546000190190555b60019095019461466e565b505050505060089290920155505050565b603354600090600160a060020a0316331461489557600080fd5b86603d8a6001606060020a03168154811015156148ae57fe5b90600052602060002090600b02016003015411151515614951576040805160e560020a62461bcd02815260206004820152604760248201527f4120737562636f7572742063616e6e6f742062652061206368696c64206f662060448201527f6120737562636f7572742077697468206120686967686572206d696e696d756d606482015260c960020a661039ba30b5b29702608482015290519081900360a40190fd5b60408051610100810182526001606060020a038b168152815160008152602080820184528201528915158183015260608101899052608080820189905260a0820188905260c082018790528251808201909352600192603d929160e083019190889060049083908390808284375050509190925250508154600180820180855560009485526020948590208451600b9094020180546001606060020a0319166001606060020a039094169390931783558385015180519195614a1893850192910190615a29565b50604082015160028201805460ff191691151591909117905560608201516003820155608082015160048083019190915560a0830151600583015560c0830151600683015560e0830151614a7191600784019190615a64565b50506040805160e160020a63483abc4f028152603e6004820152939092036001606060020a038116602485015260448401869052915191935073__SortitionSumTreeFactory_______________92639075789e9260648083019350600092829003018186803b158015614ae457600080fd5b505af4158015614af8573d6000803e3d6000fd5b50505050603d896001606060020a0316815481101515614b1457fe5b600091825260208083206001600b9093020182018054928301815583529091206001606060020a039092169101555050505050505050565b600160a060020a03811660009081526044602090815260409182902080548351818402810184019094528084526060939192839190830182828015614be257602002820191906000526020600020906000905b82829054906101000a90046001606060020a03166001606060020a0316815260200190600c0190602082600b01049283019260010382029150808411614b9f5790505b5050505050915050919050565b50600192915050565b6044602052600090815260409020600181015460029091015482565b603354600160a060020a03163314614c2b57600080fd5b603b55565b606080606080606080600080604260008a815260200190815260200160002091508160040180549050604051908082528060200260200182016040528015614c82578160200160208202803883390190505b509750600090505b6004820154811015614cd25760048201805482908110614ca657fe5b6000918252602090912001548851899083908110614cc057fe5b60209081029091010152600101614c8a565b81600601805480602002602001604051908101604052809291908181526020018280548015614d2057602002820191906000526020600020905b815481526020019060010190808311614d0c575b5050505050965081600701805480602002602001604051908101604052809291908181526020018280548015614d7557602002820191906000526020600020905b815481526020019060010190808311614d61575b5050505050955081600a01805480602002602001604051908101604052809291908181526020018280548015614dca57602002820191906000526020600020905b815481526020019060010190808311614db6575b5050505050945081600b01805480602002602001604051908101604052809291908181526020018280548015614e1f57602002820191906000526020600020905b815481526020019060010190808311614e0b575b5050505050935081600c01805480602002602001604051908101604052809291908181526020018280548015614e7457602002820191906000526020600020905b815481526020019060010190808311614e60575b50505050509250505091939550919395565b6000828152604260205260408120600581018054606092849290918391829188908110614eaf57fe5b90600052602060002090600302019150816000015495508260010154600101604051908082528060200260200182016040528015614ef7578160200160208202803883390190505b509450600090505b60018301548111614f3b5760008181526001830160205260409020548551869083908110614f2957fe5b60209081029091010152600101614eff565b506002015493969295505060ff90921692509050565b603354600160a060020a03163314614f6857600080fd5b60338054600160a060020a031916600160a060020a0392909216919091179055565b600381565b60008281526042602052604081206004810180548391906000198101908110614fb457fe5b6000918252602090912001548254603d8054929350916001606060020a03909116908110614fde57fe5b90600052602060002090600b0201600601548110151561507e5781546001606060020a0316151561501857600160ff60020a039250615079565b8154603d8054600160028502019282916001606060020a0390911690811061503c57fe5b60009182526020909120600b909102015481546001606060020a0390911690811061506357fe5b90600052602060002090600b0201600501540292505b6150b4565b8154603d805460016002850201926001606060020a031690811061509e57fe5b90600052602060002090600b0201600501540292505b505092915050565b50600090565b603c5460ff1681565b60008060006150d9846158da565b9150915080603d836001606060020a03168154811015156150f657fe5b90600052602060002090600b0201600501540292505050919050565b603454600160a060020a031681565b6000828152604260205260408120600581018054839291839182918291600019810190811061514c57fe5b600091825260209091206002600390920201015460ff16156151f357600a840180548890811061517857fe5b9060005260206000200154925060008311156151e5578284600c01888154811015156151a057fe5b90600052602060002001548115156151b457fe5b0495508284600701888154811015156151c957fe5b90600052602060002001548115156151dd57fe5b0494506151ee565b60009550600094505b6152a4565b600584018054600019810190811061520757fe5b9060005260206000209060030201600001549150836005018781548110151561522c57fe5b906000526020600020906003020160010160008381526020019081526020016000205490508084600c018881548110151561526357fe5b906000526020600020015481151561527757fe5b04955080846007018881548110151561528c57fe5b90600052602060002001548115156152a057fe5b0494505b505050509250929050565b600080600080600080600080603d805490508a6001606060020a03161015156152db5760009750615883565b600060355460a060020a900460ff1660028111156152f557fe5b146153e5576060604051908101604052808c600160a060020a031681526020018b6001606060020a031681526020018a6001608060020a0316815250603f6000604160008154600101919050819055815260200190815260200160002060008201518160000160006101000a815481600160a060020a030219169083600160a060020a0316021790555060208201518160000160146101000a8154816001606060020a0302191690836001606060020a0316021790555060408201518160010160006101000a8154816001608060020a0302191690836001608060020a0316021790555090505060019750615883565b6001608060020a038916158061542d5750886001608060020a0316603d8b6001606060020a031681548110151561541857fe5b90600052602060002090600b02016003015411155b151561543c5760009750615883565b600160a060020a038b16600090815260446020526040902096506154608b8b61589b565b6040805160e060020a637521ccb1028152603e60048201526001606060020a038d16602482015260448101839052905191975073__SortitionSumTreeFactory_______________91637521ccb191606480820192602092909190829003018186803b1580156154cf57600080fd5b505af41580156154e3573d6000803e3d6000fd5b505050506040513d60208110156154f957600080fd5b505194506001608060020a03891615806155135750600085115b8061551f575086546004115b151561552e5760009750615883565b60018701548590036001608060020a038a16908101945015806155d057506034546040805160e060020a6370a08231028152600160a060020a038e811660048301529151879392909216916370a08231916024808201926020929091908290030181600087803b1580156155a157600080fd5b505af11580156155b5573d6000803e3d6000fd5b505050506040513d60208110156155cb57600080fd5b505110155b15156155df5760009750615883565b600187018490556001608060020a03891615156156fc57600092505b86548310156156f75786546001606060020a038b169088908590811061561d57fe5b600091825260209091206002820401546001909116600c026101000a90046001606060020a031614156156ec5786548790600019810190811061565c57fe5b9060005260206000209060029182820401919006600c029054906101000a90046001606060020a0316876000018481548110151561569657fe5b9060005260206000209060029182820401919006600c026101000a8154816001606060020a0302191690836001606060020a03160217905550866000018054809190600190036156e69190615a91565b506156f7565b6001909201916155fb565b61573e565b84151561573e578654600180820189556000898152602090206002830401805491909216600c026101000a6001606060020a0381810219909216918d16021790555b50600090506001606060020a0389165b811515615821576040805160e160020a631712e1c5028152603e6004820152602481018390526001608060020a038b16604482015260648101889052905173__SortitionSumTreeFactory_______________91632e25c38a916084808301926000929190829003018186803b1580156157c757600080fd5b505af41580156157db573d6000803e3d6000fd5b5050505080600014156157f1576001915061581c565b603d8054829081106157ff57fe5b60009182526020909120600b90910201546001606060020a031690505b61574e565b604080516001606060020a038c1681526001608060020a038b1660208201528082018690529051600160a060020a038d16917f8f753321c98641397daaca5e8abf8881fff1fd7a7bc229924a012e2cb61763d5919081900360600190a2600197505b505050505050509392505050565b303b8015905b5090565b600060405160005b60148110156158be578481600c011a818301536001016158a3565b5060145b602081101561416b5783811a818301536001016158c2565b6000806040835110151561591b57505060208101516040820151603d546001606060020a0383161061590b57600091505b801515615916575060035b615923565b506000905060035b915091565b60008060405160005b601481101561594c5784811a81600c84010153600101615931565b505193915050565b6080604051908101604052806004906020820280388339509192915050565b8154818355818111156135cf576000838152602090206135cf918101908301615ac5565b8154818355818111156135cf576004028160040283600052602060002091820191016135cf9190615aeb565b8154818355818111156135cf576003028160030283600052602060002091820191016135cf9190615b29565b8260048101928215615a1d579160200282015b82811115615a1d578235825591602001919060010190615a02565b50615897929150615b4f565b828054828255906000526020600020908101928215615a1d579160200282015b82811115615a1d578251825591602001919060010190615a49565b8260048101928215615a1d5791602002820182811115615a1d578251825591602001919060010190615a49565b8154818355818111156135cf5760010160029004816001016002900483600052602060002091820191016135cf9190615b4f565b615ae891905b80821115615897576000615adf8282615b69565b50600101615acb565b90565b615ae891905b80821115615897578054600160a060020a0319168155600060018201819055600282015560038101805460ff19169055600401615af1565b615ae891905b80821115615897576000815560028101805460ff19169055600301615b2f565b615ae891905b808211156158975760008155600101615b55565b5080546000825560040290600052602060002090810190613fd79190615aeb56004469737075746520494420646f6573206e6f742065786973742e0000000000004e6f5cf43b95303e86aee81683df63992061723a829ee012db21dad388756b915468652063616c6c65722068617320746f206f776e2074686520766f74652e0024f45c2b08bbde8c837d70b67991ccb7660537cf749de21a940ae4858b681e19a165627a7a72305820c1d542e8f0607a3c4ad1f6f90c2b34cf9b39891133aa932fac2b67aa55146ed90029","source":"/**\n *  https://contributing.kleros.io/smart-contract-workflow\n *  @authors: [@fnanni-0]\n *  @reviewers: [@shalzz, @unknownunknown1, @MerlinEgalite, @hbarcelos]\n *  @auditors: []\n *  @bounties: []\n *  @deployments: []\n */\n/* solium-disable error-reason */\n/* solium-disable security/no-block-members */\npragma solidity ^0.4.24;\n\nimport \"openzeppelin-eth/contracts/zos-lib/Initializable.sol\";\nimport { TokenController } from \"minimetoken/contracts/TokenController.sol\";\nimport { Arbitrator, Arbitrable } from \"@kleros/kleros-interaction/contracts/standard/arbitration/Arbitrator.sol\";\nimport { WrappedPinakion } from \"../tokens/WrappedPinakion.sol\";\nimport { IRandomAuRa } from \"../interfaces/IRandomAuRa.sol\";\n\nimport { SortitionSumTreeFactory } from \"@kleros/kleros/contracts/data-structures/SortitionSumTreeFactory.sol\";\n\n/**\n *  @title xKlerosLiquid\n *  @dev This contract is an adaption of Mainnet's KlerosLiquid (https://github.com/kleros/kleros/blob/69cfbfb2128c29f1625b3a99a3183540772fda08/contracts/kleros/KlerosLiquid.sol)\n *  for xDai chain. Notice that variables referring to ETH values in this contract, will hold the native token values of the chain on which xKlerosLiquid is deployed.\n *  When this contract gets deployed on xDai chain, ETH variables will hold xDai values.\n */\ncontract xKlerosLiquid is Initializable, TokenController, Arbitrator {\n    /* Enums */\n\n    // General\n    enum Phase {\n      staking, // Stake sum trees can be updated. Pass after `minStakingTime` passes and there is at least one dispute without jurors.\n      generating, // Waiting for a random number. Pass as soon as it is ready.\n      drawing // Jurors can be drawn. Pass after all disputes have jurors or `maxDrawingTime` passes.\n    }\n\n    // Dispute\n    enum Period {\n      evidence, // Evidence can be submitted. This is also when drawing has to take place.\n      commit, // Jurors commit a hashed vote. This is skipped for courts without hidden votes.\n      vote, // Jurors reveal/cast their vote depending on whether the court has hidden votes or not.\n      appeal, // The dispute can be appealed.\n      execution // Tokens are redistributed and the ruling is executed.\n    }\n\n    /* Structs */\n\n    // General\n    struct Court {\n        uint96 parent; // The parent court.\n        uint[] children; // List of child courts.\n        bool hiddenVotes; // Whether to use commit and reveal or not.\n        uint minStake; // Minimum tokens needed to stake in the court.\n        uint alpha; // Basis point of tokens that are lost when incoherent.\n        uint feeForJuror; // Arbitration fee paid per juror.\n        // The appeal after the one that reaches this number of jurors will go to the parent court if any, otherwise, no more appeals are possible.\n        uint jurorsForCourtJump;\n        uint[4] timesPerPeriod; // The time allotted to each dispute period in the form `timesPerPeriod[period]`.\n    }\n    struct DelayedSetStake {\n        address account; // The address of the juror.\n        uint96 subcourtID; // The ID of the subcourt.\n        uint128 stake; // The new stake.\n    }\n\n    // Dispute\n    struct Vote {\n        address account; // The address of the juror.\n        bytes32 commit; // The commit of the juror. For courts with hidden votes.\n        uint choice; // The choice of the juror.\n        bool voted; // True if the vote has been cast or revealed, false otherwise.\n    }\n    struct VoteCounter {\n        // The choice with the most votes. Note that in the case of a tie, it is the choice that reached the tied number of votes first.\n        uint winningChoice;\n        mapping(uint => uint) counts; // The sum of votes for each choice in the form `counts[choice]`.\n        bool tied; // True if there is a tie, false otherwise.\n    }\n    struct Dispute { // Note that appeal `0` is equivalent to the first round of the dispute.\n        uint96 subcourtID; // The ID of the subcourt the dispute is in.\n        Arbitrable arbitrated; // The arbitrated arbitrable contract.\n        // The number of choices jurors have when voting. This does not include choice `0` which is reserved for \"refuse to arbitrate\"/\"no ruling\".\n        uint numberOfChoices;\n        Period period; // The current period of the dispute.\n        uint lastPeriodChange; // The last time the period was changed.\n        // The votes in the form `votes[appeal][voteID]`. On each round, a new list is pushed and packed with as many empty votes as there are draws. We use `dispute.votes.length` to get the number of appeals plus 1 for the first round.\n        Vote[][] votes;\n        VoteCounter[] voteCounters; // The vote counters in the form `voteCounters[appeal]`.\n        uint[] tokensAtStakePerJuror; // The amount of tokens at stake for each juror in the form `tokensAtStakePerJuror[appeal]`.\n        uint[] totalFeesForJurors; // The total juror fees paid in the form `totalFeesForJurors[appeal]`.\n        uint drawsInRound; // A counter of draws made in the current round.\n        uint commitsInRound; // A counter of commits made in the current round.\n        uint[] votesInEachRound; // A counter of votes made in each round in the form `votesInEachRound[appeal]`.\n        // A counter of vote reward repartitions made in each round in the form `repartitionsInEachRound[appeal]`.\n        uint[] repartitionsInEachRound;\n        uint[] penaltiesInEachRound; // The amount of tokens collected from penalties in each round in the form `penaltiesInEachRound[appeal]`.\n        bool ruled; // True if the ruling has been executed, false otherwise.\n    }\n\n    // Juror\n    struct Juror {\n        // The IDs of subcourts where the juror has stake path ends. A stake path is a path from the general court to a court the juror directly staked in using `_setStake`.\n        uint96[] subcourtIDs;\n        uint stakedTokens; // The juror's total amount of tokens staked in subcourts.\n        uint lockedTokens; // The juror's total amount of tokens locked in disputes.\n    }\n\n    /* Events */\n\n    /** @dev Emitted when we pass to a new phase.\n     *  @param _phase The new phase.\n     */\n    event NewPhase(Phase _phase);\n\n    /** @dev Emitted when a dispute passes to a new period.\n     *  @param _disputeID The ID of the dispute.\n     *  @param _period The new period.\n     */\n    event NewPeriod(uint indexed _disputeID, Period _period);\n\n    /** @dev Emitted when a juror's stake is set.\n     *  @param _address The address of the juror.\n     *  @param _subcourtID The ID of the subcourt at the end of the stake path.\n     *  @param _stake The new stake.\n     *  @param _newTotalStake The new total stake.\n     */\n    event StakeSet(address indexed _address, uint _subcourtID, uint128 _stake, uint _newTotalStake);\n\n    /** @dev Emitted when a juror is drawn.\n     *  @param _address The drawn address.\n     *  @param _disputeID The ID of the dispute.\n     *  @param _appeal The appeal the draw is for. 0 is for the first round.\n     *  @param _voteID The vote ID.\n     */\n    event Draw(address indexed _address, uint indexed _disputeID, uint _appeal, uint _voteID);\n\n    /** @dev Emitted when a juror wins or loses tokens and ETH from a dispute.\n     *  @param _address The juror affected.\n     *  @param _disputeID The ID of the dispute.\n     *  @param _tokenAmount The amount of tokens won or lost.\n     *  @param _ETHAmount The amount of ETH won or lost.\n     */\n    event TokenAndETHShift(address indexed _address, uint indexed _disputeID, int _tokenAmount, int _ETHAmount);\n\n    /* Storage */\n\n    // General Constants\n    uint public constant MAX_STAKE_PATHS = 4; // The maximum number of stake paths a juror can have.\n    uint public constant MIN_JURORS = 3; // The global default minimum number of jurors in a dispute.\n    uint public constant NON_PAYABLE_AMOUNT = (2 ** 256 - 2) / 2; // An amount higher than the supply of ETH.\n    uint public constant ALPHA_DIVISOR = 1e4; // The number to divide `Court.alpha` by.\n    // General Contracts\n    address public governor; // The governor of the contract.\n    WrappedPinakion public pinakion; // The Pinakion token contract.\n    IRandomAuRa public RNGenerator; // The random number generator contract.\n    // General Dynamic\n    Phase public phase; // The current phase.\n    uint public lastPhaseChange; // The last time the phase was changed.\n    uint public disputesWithoutJurors; // The number of disputes that have not finished drawing jurors.\n    // The block number to get the next random number from. Used so there is at least a 1 block difference from the staking phase.\n    uint public RNBlock;\n    uint public RN; // The current random number.\n    uint public minStakingTime; // The minimum staking time.\n    uint public maxDrawingTime; // The maximum drawing time.\n    // True if insolvent (`balance < stakedTokens || balance < lockedTokens`) token transfers should be blocked. Used to avoid blocking penalties.\n    bool public lockInsolventTransfers;\n    // General Storage\n    Court[] public courts; // The subcourts.\n    using SortitionSumTreeFactory for SortitionSumTreeFactory.SortitionSumTrees; // Use library functions for sortition sum trees.\n    SortitionSumTreeFactory.SortitionSumTrees internal sortitionSumTrees; // The sortition sum trees.\n    // The delayed calls to `_setStake`. Used to schedule `_setStake`s when not in the staking phase.\n    mapping(uint => DelayedSetStake) public delayedSetStakes;\n    // The index of the next `delayedSetStakes` item to execute. Starts at 1 because `lastDelayedSetStake` starts at 0.\n    uint public nextDelayedSetStake;\n    uint public lastDelayedSetStake; // The index of the last `delayedSetStakes` item. 0 is skipped because it is the initial value.\n\n    // Dispute\n    // Use a mapping instead of an array so that upgrading (appending variables to) the Dispute struct is possible without big layout changes.\n    mapping(uint => Dispute) public disputes; // The disputes. \n    uint public totalDisputes;\n\n    // Juror\n    mapping(address => Juror) public jurors; // The jurors.\n\n    /* Modifiers */\n\n    /** @dev Requires a specific phase.\n     *  @param _phase The required phase.\n     */\n    modifier onlyDuringPhase(Phase _phase) {require(phase == _phase); _;}\n\n    /** @dev Requires a specific period in a dispute.\n     *  @param _disputeID The ID of the dispute.\n     *  @param _period The required period.\n     */\n    modifier onlyDuringPeriod(uint _disputeID, Period _period) {require(disputes[_disputeID].period == _period); _;}\n\n    /** @dev Requires that the sender is the governor. Note that the governor is expected to not be malicious. */\n    modifier onlyByGovernor() {require(governor == msg.sender); _;}\n\n    /* Constructor */\n\n    /** @dev Constructs the KlerosLiquid contract.\n     *  @param _governor The governor's address.\n     *  @param _pinakion The address of the token contract.\n     *  @param _RNGenerator The address of the random number generator contract.\n     *  @param _minStakingTime The minimum time that the staking phase should last.\n     *  @param _maxDrawingTime The maximum time that the drawing phase should last.\n     *  @param _hiddenVotes The `hiddenVotes` property value of the general court.\n     *  @param _minStake The `minStake` property value of the general court.\n     *  @param _alpha The `alpha` property value of the general court.\n     *  @param _feeForJuror The `feeForJuror` property value of the general court.\n     *  @param _jurorsForCourtJump The `jurorsForCourtJump` property value of the general court.\n     *  @param _timesPerPeriod The `timesPerPeriod` property value of the general court.\n     *  @param _sortitionSumTreeK The number of children per node of the general court's sortition sum tree.\n     */\n    function initialize(\n        address _governor,\n        WrappedPinakion _pinakion,\n        IRandomAuRa _RNGenerator,\n        uint _minStakingTime,\n        uint _maxDrawingTime,\n        bool _hiddenVotes,\n        uint _minStake,\n        uint _alpha,\n        uint _feeForJuror,\n        uint _jurorsForCourtJump,\n        uint[4] _timesPerPeriod,\n        uint _sortitionSumTreeK\n    ) public initializer {\n        // Initialize contract.\n        governor = _governor;\n        pinakion = _pinakion;\n        RNGenerator = _RNGenerator;\n        minStakingTime = _minStakingTime;\n        maxDrawingTime = _maxDrawingTime;\n        lastPhaseChange = now;\n        lockInsolventTransfers = true;\n        nextDelayedSetStake = 1;\n\n        // Create the general court.\n        courts.push(Court({\n            parent: 0,\n            children: new uint[](0),\n            hiddenVotes: _hiddenVotes,\n            minStake: _minStake,\n            alpha: _alpha,\n            feeForJuror: _feeForJuror,\n            jurorsForCourtJump: _jurorsForCourtJump,\n            timesPerPeriod: _timesPerPeriod\n        }));\n        sortitionSumTrees.createTree(bytes32(0), _sortitionSumTreeK);\n    }\n\n    /* External */\n\n    /** @dev Lets the governor call anything on behalf of the contract.\n     *  @param _destination The destination of the call.\n     *  @param _amount The value sent with the call.\n     *  @param _data The data sent with the call.\n     */\n    function executeGovernorProposal(address _destination, uint _amount, bytes _data) external onlyByGovernor {\n        require(_destination.call.value(_amount)(_data)); // solium-disable-line security/no-call-value\n    }\n\n    /** @dev Changes the `governor` storage variable.\n     *  @param _governor The new value for the `governor` storage variable.\n     */\n    function changeGovernor(address _governor) external onlyByGovernor {\n        governor = _governor;\n    }\n\n    /** @dev Changes the `pinakion` storage variable.\n     *  @param _pinakion The new value for the `pinakion` storage variable.\n     */\n    function changePinakion(WrappedPinakion _pinakion) external onlyByGovernor {\n        pinakion = _pinakion;\n    }\n\n    /** @dev Changes the `RNGenerator` storage variable.\n     *  @param _RNGenerator The new value for the `RNGenerator` storage variable.\n     */\n    function changeRNGenerator(IRandomAuRa _RNGenerator) external onlyByGovernor {\n        RNGenerator = _RNGenerator;\n        if (phase == Phase.generating) {\n            RNBlock = RNGenerator.nextCommitPhaseStartBlock() + RNGenerator.collectRoundLength();\n        }\n    }\n\n    /** @dev Changes the `minStakingTime` storage variable.\n     *  @param _minStakingTime The new value for the `minStakingTime` storage variable.\n     */\n    function changeMinStakingTime(uint _minStakingTime) external onlyByGovernor {\n        minStakingTime = _minStakingTime;\n    }\n\n    /** @dev Changes the `maxDrawingTime` storage variable.\n     *  @param _maxDrawingTime The new value for the `maxDrawingTime` storage variable.\n     */\n    function changeMaxDrawingTime(uint _maxDrawingTime) external onlyByGovernor {\n        maxDrawingTime = _maxDrawingTime;\n    }\n\n    /** @dev Creates a subcourt under a specified parent court.\n     *  @param _parent The `parent` property value of the subcourt.\n     *  @param _hiddenVotes The `hiddenVotes` property value of the subcourt.\n     *  @param _minStake The `minStake` property value of the subcourt.\n     *  @param _alpha The `alpha` property value of the subcourt.\n     *  @param _feeForJuror The `feeForJuror` property value of the subcourt.\n     *  @param _jurorsForCourtJump The `jurorsForCourtJump` property value of the subcourt.\n     *  @param _timesPerPeriod The `timesPerPeriod` property value of the subcourt.\n     *  @param _sortitionSumTreeK The number of children per node of the subcourt's sortition sum tree.\n     */\n    function createSubcourt(\n        uint96 _parent,\n        bool _hiddenVotes,\n        uint _minStake,\n        uint _alpha,\n        uint _feeForJuror,\n        uint _jurorsForCourtJump,\n        uint[4] _timesPerPeriod,\n        uint _sortitionSumTreeK\n    ) external onlyByGovernor {\n        require(courts[_parent].minStake <= _minStake, \"A subcourt cannot be a child of a subcourt with a higher minimum stake.\");\n\n        // Create the subcourt.\n        uint96 subcourtID = uint96(\n            courts.push(Court({\n                parent: _parent,\n                children: new uint[](0),\n                hiddenVotes: _hiddenVotes,\n                minStake: _minStake,\n                alpha: _alpha,\n                feeForJuror: _feeForJuror,\n                jurorsForCourtJump: _jurorsForCourtJump,\n                timesPerPeriod: _timesPerPeriod\n            })) - 1\n        );\n        sortitionSumTrees.createTree(bytes32(subcourtID), _sortitionSumTreeK);\n\n        // Update the parent.\n        courts[_parent].children.push(subcourtID);\n    }\n\n    /** @dev Changes the `minStake` property value of a specified subcourt. Don't set to a value lower than its parent's `minStake` property value.\n     *  @param _subcourtID The ID of the subcourt.\n     *  @param _minStake The new value for the `minStake` property value.\n     */\n    function changeSubcourtMinStake(uint96 _subcourtID, uint _minStake) external onlyByGovernor {\n        require(_subcourtID == 0 || courts[courts[_subcourtID].parent].minStake <= _minStake);\n        for (uint i = 0; i < courts[_subcourtID].children.length; i++) {\n            require(\n                courts[courts[_subcourtID].children[i]].minStake >= _minStake,\n                \"A subcourt cannot be the parent of a subcourt with a lower minimum stake.\"\n            );\n        }\n\n        courts[_subcourtID].minStake = _minStake;\n    }\n\n    /** @dev Changes the `alpha` property value of a specified subcourt.\n     *  @param _subcourtID The ID of the subcourt.\n     *  @param _alpha The new value for the `alpha` property value.\n     */\n    function changeSubcourtAlpha(uint96 _subcourtID, uint _alpha) external onlyByGovernor {\n        courts[_subcourtID].alpha = _alpha;\n    }\n\n    /** @dev Changes the `feeForJuror` property value of a specified subcourt.\n     *  @param _subcourtID The ID of the subcourt.\n     *  @param _feeForJuror The new value for the `feeForJuror` property value.\n     */\n    function changeSubcourtJurorFee(uint96 _subcourtID, uint _feeForJuror) external onlyByGovernor {\n        courts[_subcourtID].feeForJuror = _feeForJuror;\n    }\n\n    /** @dev Changes the `jurorsForCourtJump` property value of a specified subcourt.\n     *  @param _subcourtID The ID of the subcourt.\n     *  @param _jurorsForCourtJump The new value for the `jurorsForCourtJump` property value.\n     */\n    function changeSubcourtJurorsForJump(uint96 _subcourtID, uint _jurorsForCourtJump) external onlyByGovernor {\n        courts[_subcourtID].jurorsForCourtJump = _jurorsForCourtJump;\n    }\n\n    /** @dev Changes the `timesPerPeriod` property value of a specified subcourt.\n     *  @param _subcourtID The ID of the subcourt.\n     *  @param _timesPerPeriod The new value for the `timesPerPeriod` property value.\n     */\n    function changeSubcourtTimesPerPeriod(uint96 _subcourtID, uint[4] _timesPerPeriod) external onlyByGovernor {\n        courts[_subcourtID].timesPerPeriod = _timesPerPeriod;\n    }\n\n    /** @dev Passes the phase. TRUSTED */\n    function passPhase() external {\n        if (phase == Phase.staking) {\n            require(now - lastPhaseChange >= minStakingTime, \"The minimum staking time has not passed yet.\");\n            require(disputesWithoutJurors > 0, \"There are no disputes that need jurors.\");\n            /** collectRoundLength is added so that the last validator to reveal cannot know \n             *  during the staking phase which random seed is going to be used in the drawing phase.\n             */ \n            RNBlock = RNGenerator.nextCommitPhaseStartBlock() + RNGenerator.collectRoundLength();\n            phase = Phase.generating;\n        } else if (phase == Phase.generating) {\n            require(block.number >= RNBlock && RNGenerator.isCommitPhase(), \"Random number is not ready yet.\"); // It's not secure to use the current seed during reveals.\n            RN = uint(keccak256(abi.encodePacked(address(this), RNGenerator.currentSeed()))); // currentSeed() cannot be predicted during staking phase.\n            phase = Phase.drawing;\n        } else if (phase == Phase.drawing) {\n            require(disputesWithoutJurors == 0 || now - lastPhaseChange >= maxDrawingTime, \"There are still disputes without jurors and the maximum drawing time has not passed yet.\");\n            phase = Phase.staking;\n        }\n\n        lastPhaseChange = now;\n        emit NewPhase(phase);\n    }\n\n    /** @dev Passes the period of a specified dispute.\n     *  @param _disputeID The ID of the dispute.\n     */\n    function passPeriod(uint _disputeID) external {\n        require(_disputeID < totalDisputes, \"Dispute ID does not exist.\");\n        Dispute storage dispute = disputes[_disputeID];\n        if (dispute.period == Period.evidence) {\n            require(\n                dispute.votes.length > 1 || now - dispute.lastPeriodChange >= courts[dispute.subcourtID].timesPerPeriod[uint(dispute.period)],\n                \"The evidence period time has not passed yet and it is not an appeal.\"\n            );\n            require(dispute.drawsInRound == dispute.votes[dispute.votes.length - 1].length, \"The dispute has not finished drawing yet.\");\n            dispute.period = courts[dispute.subcourtID].hiddenVotes ? Period.commit : Period.vote;\n        } else if (dispute.period == Period.commit) {\n            require(\n                now - dispute.lastPeriodChange >= courts[dispute.subcourtID].timesPerPeriod[uint(dispute.period)] || dispute.commitsInRound == dispute.votes[dispute.votes.length - 1].length,\n                \"The commit period time has not passed yet and not every juror has committed yet.\"\n            );\n            dispute.period = Period.vote;\n        } else if (dispute.period == Period.vote) {\n            require(\n                now - dispute.lastPeriodChange >= courts[dispute.subcourtID].timesPerPeriod[uint(dispute.period)] || dispute.votesInEachRound[dispute.votes.length - 1] == dispute.votes[dispute.votes.length - 1].length,\n                \"The vote period time has not passed yet and not every juror has voted yet.\"\n            );\n            dispute.period = Period.appeal;\n            emit AppealPossible(_disputeID, dispute.arbitrated);\n        } else if (dispute.period == Period.appeal) {\n            require(now - dispute.lastPeriodChange >= courts[dispute.subcourtID].timesPerPeriod[uint(dispute.period)], \"The appeal period time has not passed yet.\");\n            dispute.period = Period.execution;\n        } else if (dispute.period == Period.execution) {\n            revert(\"The dispute is already in the last period.\");\n        }\n\n        dispute.lastPeriodChange = now;\n        emit NewPeriod(_disputeID, dispute.period);\n    }\n\n    /** @dev Sets the caller's stake in a subcourt.\n     *  @param _subcourtID The ID of the subcourt.\n     *  @param _stake The new stake.\n     */\n    function setStake(uint96 _subcourtID, uint128 _stake) external {\n        require(_setStake(msg.sender, _subcourtID, _stake));\n    }\n\n    /** @dev Executes the next delayed set stakes.\n     *  `O(n)` where `n` is the number of iterations to run.\n     *  @param _iterations The number of delayed set stakes to execute.\n     */\n    function executeDelayedSetStakes(uint _iterations) external onlyDuringPhase(Phase.staking) {\n        uint actualIterations = (nextDelayedSetStake + _iterations) - 1 > lastDelayedSetStake ?\n            (lastDelayedSetStake - nextDelayedSetStake) + 1 : _iterations;\n        uint newNextDelayedSetStake = nextDelayedSetStake + actualIterations;\n        require(newNextDelayedSetStake >= nextDelayedSetStake);\n        for (uint i = nextDelayedSetStake; i < newNextDelayedSetStake; i++) {\n            DelayedSetStake storage delayedSetStake = delayedSetStakes[i];\n            _setStake(delayedSetStake.account, delayedSetStake.subcourtID, delayedSetStake.stake);\n            delete delayedSetStakes[i];\n        }\n        nextDelayedSetStake = newNextDelayedSetStake;\n    }\n\n    /** @dev Draws jurors for a dispute. Can be called in parts.\n     *  `O(n * k * log_k(j))` where\n     *  `n` is the number of iterations to run,\n     *  `k` is the number of children per node of the dispute's court's sortition sum tree,\n     *  and `j` is the maximum number of jurors that ever staked in it simultaneously.\n     *  @param _disputeID The ID of the dispute.\n     *  @param _iterations The number of iterations to run.\n     */\n    function drawJurors(\n        uint _disputeID,\n        uint _iterations\n    ) external onlyDuringPhase(Phase.drawing) onlyDuringPeriod(_disputeID, Period.evidence) {\n        require(_disputeID < totalDisputes, \"Dispute ID does not exist.\");\n        Dispute storage dispute = disputes[_disputeID];\n        uint endIndex = dispute.drawsInRound + _iterations;\n        require(endIndex >= dispute.drawsInRound);\n\n        // Avoid going out of range.\n        if (endIndex > dispute.votes[dispute.votes.length - 1].length) endIndex = dispute.votes[dispute.votes.length - 1].length;\n        for (uint i = dispute.drawsInRound; i < endIndex; i++) {\n            // Draw from sortition tree.\n            (\n                address drawnAddress,\n                uint subcourtID\n            ) = stakePathIDToAccountAndSubcourtID(sortitionSumTrees.draw(bytes32(dispute.subcourtID), uint(keccak256(RN, _disputeID, i))));\n\n            // Save the vote.\n            dispute.votes[dispute.votes.length - 1][i].account = drawnAddress;\n            jurors[drawnAddress].lockedTokens += dispute.tokensAtStakePerJuror[dispute.tokensAtStakePerJuror.length - 1];\n            emit Draw(drawnAddress, _disputeID, dispute.votes.length - 1, i);\n\n            // If dispute is fully drawn.\n            if (i == dispute.votes[dispute.votes.length - 1].length - 1) disputesWithoutJurors--;\n        }\n        dispute.drawsInRound = endIndex;\n    }\n\n    /** @dev Sets the caller's commit for the specified votes.\n     *  `O(n)` where\n     *  `n` is the number of votes.\n     *  @param _disputeID The ID of the dispute.\n     *  @param _voteIDs The IDs of the votes.\n     *  @param _commit The commit.\n     */\n    function castCommit(uint _disputeID, uint[] _voteIDs, bytes32 _commit) external onlyDuringPeriod(_disputeID, Period.commit) {\n        Dispute storage dispute = disputes[_disputeID];\n        require(_commit != bytes32(0));\n        for (uint i = 0; i < _voteIDs.length; i++) {\n            require(dispute.votes[dispute.votes.length - 1][_voteIDs[i]].account == msg.sender, \"The caller has to own the vote.\");\n            require(dispute.votes[dispute.votes.length - 1][_voteIDs[i]].commit == bytes32(0), \"Already committed this vote.\");\n            dispute.votes[dispute.votes.length - 1][_voteIDs[i]].commit = _commit;\n        }\n        dispute.commitsInRound += _voteIDs.length;\n    }\n\n    /** @dev Sets the caller's choices for the specified votes.\n     *  `O(n)` where\n     *  `n` is the number of votes.\n     *  @param _disputeID The ID of the dispute.\n     *  @param _voteIDs The IDs of the votes.\n     *  @param _choice The choice.\n     *  @param _salt The salt for the commit if the votes were hidden.\n     */\n    function castVote(uint _disputeID, uint[] _voteIDs, uint _choice, uint _salt) external onlyDuringPeriod(_disputeID, Period.vote) {\n        Dispute storage dispute = disputes[_disputeID];\n        require(_voteIDs.length > 0);\n        require(_choice <= dispute.numberOfChoices, \"The choice has to be less than or equal to the number of choices for the dispute.\");\n\n        // Save the votes.\n        for (uint i = 0; i < _voteIDs.length; i++) {\n            require(dispute.votes[dispute.votes.length - 1][_voteIDs[i]].account == msg.sender, \"The caller has to own the vote.\");\n            require(\n                !courts[dispute.subcourtID].hiddenVotes || dispute.votes[dispute.votes.length - 1][_voteIDs[i]].commit == keccak256(_choice, _salt),\n                \"The commit must match the choice in subcourts with hidden votes.\"\n            );\n            require(!dispute.votes[dispute.votes.length - 1][_voteIDs[i]].voted, \"Vote already cast.\");\n            dispute.votes[dispute.votes.length - 1][_voteIDs[i]].choice = _choice;\n            dispute.votes[dispute.votes.length - 1][_voteIDs[i]].voted = true;\n        }\n        dispute.votesInEachRound[dispute.votes.length - 1] += _voteIDs.length;\n\n        // Update winning choice.\n        VoteCounter storage voteCounter = dispute.voteCounters[dispute.voteCounters.length - 1];\n        voteCounter.counts[_choice] += _voteIDs.length;\n        if (_choice == voteCounter.winningChoice) { // Voted for the winning choice.\n            if (voteCounter.tied) voteCounter.tied = false; // Potentially broke tie.\n        } else { // Voted for another choice.\n            if (voteCounter.counts[_choice] == voteCounter.counts[voteCounter.winningChoice]) { // Tie.\n                if (!voteCounter.tied) voteCounter.tied = true;\n            } else if (voteCounter.counts[_choice] > voteCounter.counts[voteCounter.winningChoice]) { // New winner.\n                voteCounter.winningChoice = _choice;\n                voteCounter.tied = false;\n            }\n        }\n    }\n\n    /** @dev Computes the token and ETH rewards for a specified appeal in a specified dispute.\n     *  @param _disputeID The ID of the dispute.\n     *  @param _appeal The appeal.\n     *  @return tokenReward The token reward.\n     *  @return ETHReward The ETH reward.\n     */\n    function computeTokenAndETHRewards(uint _disputeID, uint _appeal) private view returns(uint tokenReward, uint ETHReward) {\n        Dispute storage dispute = disputes[_disputeID];\n\n        // Distribute penalties and arbitration fees.\n        if (dispute.voteCounters[dispute.voteCounters.length - 1].tied) {\n            // Distribute penalties and fees evenly between active jurors.\n            uint activeCount = dispute.votesInEachRound[_appeal];\n            if (activeCount > 0) {\n                tokenReward = dispute.penaltiesInEachRound[_appeal] / activeCount;\n                ETHReward = dispute.totalFeesForJurors[_appeal] / activeCount;\n            } else {\n                tokenReward = 0;\n                ETHReward = 0;\n            }\n        } else {\n            // Distribute penalties and fees evenly between coherent jurors.\n            uint winningChoice = dispute.voteCounters[dispute.voteCounters.length - 1].winningChoice;\n            uint coherentCount = dispute.voteCounters[_appeal].counts[winningChoice];\n            tokenReward = dispute.penaltiesInEachRound[_appeal] / coherentCount;\n            ETHReward = dispute.totalFeesForJurors[_appeal] / coherentCount;\n        }\n    }\n\n    /** @dev Repartitions tokens and ETH for a specified appeal in a specified dispute. Can be called in parts.\n     *  `O(i + u * n * (n + p * log_k(j)))` where\n     *  `i` is the number of iterations to run,\n     *  `u` is the number of jurors that need to be unstaked,\n     *  `n` is the maximum number of subcourts one of these jurors has staked in,\n     *  `p` is the depth of the subcourt tree,\n     *  `k` is the minimum number of children per node of one of these subcourts' sortition sum tree,\n     *  and `j` is the maximum number of jurors that ever staked in one of these subcourts simultaneously.\n     *  @param _disputeID The ID of the dispute.\n     *  @param _appeal The appeal.\n     *  @param _iterations The number of iterations to run.\n     */\n    function execute(uint _disputeID, uint _appeal, uint _iterations) external onlyDuringPeriod(_disputeID, Period.execution) {\n        lockInsolventTransfers = false;\n        Dispute storage dispute = disputes[_disputeID];\n        uint end = dispute.repartitionsInEachRound[_appeal] + _iterations;\n        require(end >= dispute.repartitionsInEachRound[_appeal]);\n        uint penaltiesInRoundCache = dispute.penaltiesInEachRound[_appeal]; // For saving gas.\n        (uint tokenReward, uint ETHReward) = (0, 0);\n\n        // Avoid going out of range.\n        if (\n            !dispute.voteCounters[dispute.voteCounters.length - 1].tied &&\n            dispute.voteCounters[_appeal].counts[dispute.voteCounters[dispute.voteCounters.length - 1].winningChoice] == 0\n        ) {\n            // We loop over the votes once as there are no rewards because it is not a tie and no one in this round is coherent with the final outcome.\n            if (end > dispute.votes[_appeal].length) end = dispute.votes[_appeal].length;\n        } else {\n            // We loop over the votes twice, first to collect penalties, and second to distribute them as rewards along with arbitration fees.\n            (tokenReward, ETHReward) = dispute.repartitionsInEachRound[_appeal] >= dispute.votes[_appeal].length ? computeTokenAndETHRewards(_disputeID, _appeal) : (0, 0); // Compute rewards if rewarding.\n            if (end > dispute.votes[_appeal].length * 2) end = dispute.votes[_appeal].length * 2;\n        }\n        for (uint i = dispute.repartitionsInEachRound[_appeal]; i < end; i++) {\n            Vote storage vote = dispute.votes[_appeal][i % dispute.votes[_appeal].length];\n            if (\n                vote.voted &&\n                (vote.choice == dispute.voteCounters[dispute.voteCounters.length - 1].winningChoice || dispute.voteCounters[dispute.voteCounters.length - 1].tied)\n            ) { // Juror was active, and voted coherently or it was a tie.\n                if (i >= dispute.votes[_appeal].length) { // Only execute in the second half of the iterations.\n\n                    // Reward.\n                    pinakion.transfer(vote.account, tokenReward);\n                    // Intentional use to avoid blocking.\n                    vote.account.send(ETHReward); // solium-disable-line security/no-send\n                    emit TokenAndETHShift(vote.account, _disputeID, int(tokenReward), int(ETHReward));\n                    jurors[vote.account].lockedTokens -= dispute.tokensAtStakePerJuror[_appeal];\n                }\n            } else { // Juror was inactive, or voted incoherently and it was not a tie.\n                if (i < dispute.votes[_appeal].length) { // Only execute in the first half of the iterations.\n\n                    // Penalize.\n                    uint penalty = dispute.tokensAtStakePerJuror[_appeal] > pinakion.balanceOf(vote.account) ? pinakion.balanceOf(vote.account) : dispute.tokensAtStakePerJuror[_appeal];\n                    pinakion.transferFrom(vote.account, this, penalty);\n                    emit TokenAndETHShift(vote.account, _disputeID, -int(penalty), 0);\n                    penaltiesInRoundCache += penalty;\n                    jurors[vote.account].lockedTokens -= dispute.tokensAtStakePerJuror[_appeal];\n\n                    // Unstake juror if his penalty made balance less than his total stake or if he lost due to inactivity.\n                    if (pinakion.balanceOf(vote.account) < jurors[vote.account].stakedTokens || !vote.voted)\n                        for (uint j = 0; j < jurors[vote.account].subcourtIDs.length; j++)\n                            _setStake(vote.account, jurors[vote.account].subcourtIDs[j], 0);\n\n                }\n            }\n            if (i == dispute.votes[_appeal].length - 1) {\n                // Send fees and tokens to the governor if no one was coherent.\n                if (dispute.votesInEachRound[_appeal] == 0 || !dispute.voteCounters[dispute.voteCounters.length - 1].tied && dispute.voteCounters[_appeal].counts[dispute.voteCounters[dispute.voteCounters.length - 1].winningChoice] == 0) {\n                    // Intentional use to avoid blocking.\n                    governor.send(dispute.totalFeesForJurors[_appeal]); // solium-disable-line security/no-send\n                    pinakion.transfer(governor, penaltiesInRoundCache);\n                } else if (i + 1 < end) {\n                    // Compute rewards because we are going into rewarding.\n                    dispute.penaltiesInEachRound[_appeal] = penaltiesInRoundCache;\n                    (tokenReward, ETHReward) = computeTokenAndETHRewards(_disputeID, _appeal);\n                }\n            }\n        }\n        if (dispute.penaltiesInEachRound[_appeal] != penaltiesInRoundCache) dispute.penaltiesInEachRound[_appeal] = penaltiesInRoundCache;\n        dispute.repartitionsInEachRound[_appeal] = end;\n        lockInsolventTransfers = true;\n    }\n\n    /** @dev Executes a specified dispute's ruling. UNTRUSTED.\n     *  @param _disputeID The ID of the dispute.\n     */\n    function executeRuling(uint _disputeID) external onlyDuringPeriod(_disputeID, Period.execution) {\n        Dispute storage dispute = disputes[_disputeID];\n        require(!dispute.ruled, \"Ruling already executed.\");\n        dispute.ruled = true;\n        uint winningChoice = dispute.voteCounters[dispute.voteCounters.length - 1].tied ? 0\n            : dispute.voteCounters[dispute.voteCounters.length - 1].winningChoice;\n        dispute.arbitrated.rule(_disputeID, winningChoice);\n    }\n\n    /* Public */\n\n    /** @dev Creates a dispute. Must be called by the arbitrable contract.\n     *  @param _numberOfChoices Number of choices to choose from in the dispute to be created.\n     *  @param _extraData Additional info about the dispute to be created. We use it to pass the ID of the subcourt to create the dispute in (first 32 bytes) and the minimum number of jurors required (next 32 bytes).\n     *  @return disputeID The ID of the created dispute.\n     */\n    function createDispute(\n        uint _numberOfChoices,\n        bytes _extraData\n    ) public payable requireArbitrationFee(_extraData) returns(uint disputeID)  {\n        (uint96 subcourtID, uint minJurors) = extraDataToSubcourtIDAndMinJurors(_extraData);\n        disputeID = totalDisputes++;\n        Dispute storage dispute = disputes[disputeID];\n        dispute.subcourtID = subcourtID;\n        dispute.arbitrated = Arbitrable(msg.sender);\n        dispute.numberOfChoices = _numberOfChoices;\n        dispute.period = Period.evidence;\n        dispute.lastPeriodChange = now;\n        // As many votes that can be afforded by the provided funds.\n        dispute.votes[dispute.votes.length++].length = msg.value / courts[dispute.subcourtID].feeForJuror;\n        dispute.voteCounters[dispute.voteCounters.length++].tied = true;\n        dispute.tokensAtStakePerJuror.push((courts[dispute.subcourtID].minStake * courts[dispute.subcourtID].alpha) / ALPHA_DIVISOR);\n        dispute.totalFeesForJurors.push(msg.value);\n        dispute.votesInEachRound.push(0);\n        dispute.repartitionsInEachRound.push(0);\n        dispute.penaltiesInEachRound.push(0);\n        disputesWithoutJurors++;\n\n        emit DisputeCreation(disputeID, Arbitrable(msg.sender));\n    }\n\n    /** @dev Appeals the ruling of a specified dispute.\n     *  @param _disputeID The ID of the dispute.\n     *  @param _extraData Additional info about the appeal. Not used by this contract.\n     */\n    function appeal(\n        uint _disputeID,\n        bytes _extraData\n    ) public payable requireAppealFee(_disputeID, _extraData) onlyDuringPeriod(_disputeID, Period.appeal) {\n        Dispute storage dispute = disputes[_disputeID];\n        require(\n            msg.sender == address(dispute.arbitrated),\n            \"Can only be called by the arbitrable contract.\"\n        );\n        if (dispute.votes[dispute.votes.length - 1].length >= courts[dispute.subcourtID].jurorsForCourtJump) // Jump to parent subcourt.\n            dispute.subcourtID = courts[dispute.subcourtID].parent;\n        dispute.period = Period.evidence;\n        dispute.lastPeriodChange = now;\n        // As many votes that can be afforded by the provided funds.\n        dispute.votes[dispute.votes.length++].length = msg.value / courts[dispute.subcourtID].feeForJuror;\n        dispute.voteCounters[dispute.voteCounters.length++].tied = true;\n        dispute.tokensAtStakePerJuror.push((courts[dispute.subcourtID].minStake * courts[dispute.subcourtID].alpha) / ALPHA_DIVISOR);\n        dispute.totalFeesForJurors.push(msg.value);\n        dispute.drawsInRound = 0;\n        dispute.commitsInRound = 0;\n        dispute.votesInEachRound.push(0);\n        dispute.repartitionsInEachRound.push(0);\n        dispute.penaltiesInEachRound.push(0);\n        disputesWithoutJurors++;\n\n        emit AppealDecision(_disputeID, Arbitrable(msg.sender));\n        emit NewPeriod(_disputeID, Period.evidence);\n    }\n\n    /** @dev DEPRECATED. Called when `_owner` sends ETH to the Wrapped Token contract.\n     *  @param _owner The address that sent the ETH to create tokens.\n     *  @return allowed Whether the operation should be allowed or not.\n     */\n    function proxyPayment(address _owner) public payable returns(bool allowed) { allowed = false; }\n\n    /** @dev Notifies the controller about a token transfer allowing the controller to react if desired.\n     *  @param _from The origin of the transfer.\n     *  @param _to The destination of the transfer.\n     *  @param _amount The amount of the transfer.\n     *  @return allowed Whether the operation should be allowed or not.\n     */\n    function onTransfer(address _from, address _to, uint _amount) public returns(bool allowed) {\n        if (lockInsolventTransfers) { // Never block penalties or rewards.\n            uint newBalance = pinakion.balanceOf(_from) - _amount;\n            if (newBalance < jurors[_from].stakedTokens || newBalance < jurors[_from].lockedTokens) return false;\n        }\n        allowed = true;\n    }\n\n    /** @dev Notifies the controller about an approval allowing the controller to react if desired.\n     *  @param _owner The address that calls `approve()`.\n     *  @param _spender The spender in the `approve()` call.\n     *  @param _amount The amount in the `approve()` call.\n     *  @return allowed Whether the operation should be allowed or not.\n     */\n    function onApprove(address _owner, address _spender, uint _amount) public returns(bool allowed) { allowed = true; }\n\n    /* Public Views */\n\n    /** @dev Gets the cost of arbitration in a specified subcourt.\n     *  @param _extraData Additional info about the dispute. We use it to pass the ID of the subcourt to create the dispute in (first 32 bytes) and the minimum number of jurors required (next 32 bytes).\n     *  @return cost The cost.\n     */\n    function arbitrationCost(bytes _extraData) public view returns(uint cost) {\n        (uint96 subcourtID, uint minJurors) = extraDataToSubcourtIDAndMinJurors(_extraData);\n        cost = courts[subcourtID].feeForJuror * minJurors;\n    }\n\n    /** @dev Gets the cost of appealing a specified dispute.\n     *  @param _disputeID The ID of the dispute.\n     *  @param _extraData Additional info about the appeal. Not used by this contract.\n     *  @return cost The cost.\n     */\n    function appealCost(uint _disputeID, bytes _extraData) public view returns(uint cost) {\n        Dispute storage dispute = disputes[_disputeID];\n        uint lastNumberOfJurors = dispute.votes[dispute.votes.length - 1].length;\n        if (lastNumberOfJurors >= courts[dispute.subcourtID].jurorsForCourtJump) { // Jump to parent subcourt.\n            if (dispute.subcourtID == 0) // Already in the general court.\n                cost = NON_PAYABLE_AMOUNT;\n            else // Get the cost of the parent subcourt.\n                cost = courts[courts[dispute.subcourtID].parent].feeForJuror * ((lastNumberOfJurors * 2) + 1);\n        } else // Stay in current subcourt.\n            cost = courts[dispute.subcourtID].feeForJuror * ((lastNumberOfJurors * 2) + 1);\n    }\n\n    /** @dev Gets the start and end of a specified dispute's current appeal period.\n     *  @param _disputeID The ID of the dispute.\n     *  @return start The start of the appeal period.\n     *  @return end The end of the appeal period.\n     */\n    function appealPeriod(uint _disputeID) public view returns(uint start, uint end) {\n        Dispute storage dispute = disputes[_disputeID];\n        if (dispute.period == Period.appeal) {\n            start = dispute.lastPeriodChange;\n            end = dispute.lastPeriodChange + courts[dispute.subcourtID].timesPerPeriod[uint(Period.appeal)];\n        } else {\n            start = 0;\n            end = 0;\n        }\n    }\n\n    /** @dev Gets the status of a specified dispute.\n     *  @param _disputeID The ID of the dispute.\n     *  @return status The status.\n     */\n    function disputeStatus(uint _disputeID) public view returns(DisputeStatus status) {\n        Dispute storage dispute = disputes[_disputeID];\n        if (dispute.period < Period.appeal) status = DisputeStatus.Waiting;\n        else if (dispute.period < Period.execution) status = DisputeStatus.Appealable;\n        else status = DisputeStatus.Solved;\n    }\n\n    /** @dev Gets the current ruling of a specified dispute.\n     *  @param _disputeID The ID of the dispute.\n     *  @return ruling The current ruling.\n     */\n    function currentRuling(uint _disputeID) public view returns(uint ruling) {\n        Dispute storage dispute = disputes[_disputeID];\n        ruling = dispute.voteCounters[dispute.voteCounters.length - 1].tied ? 0\n            : dispute.voteCounters[dispute.voteCounters.length - 1].winningChoice;\n    }\n\n    /* Internal */\n\n    /** @dev Sets the specified juror's stake in a subcourt.\n     *  `O(n + p * log_k(j))` where\n     *  `n` is the number of subcourts the juror has staked in,\n     *  `p` is the depth of the subcourt tree,\n     *  `k` is the minimum number of children per node of one of these subcourts' sortition sum tree,\n     *  and `j` is the maximum number of jurors that ever staked in one of these subcourts simultaneously.\n     *  @param _account The address of the juror.\n     *  @param _subcourtID The ID of the subcourt.\n     *  @param _stake The new stake.\n     *  @return succeeded True if the call succeeded, false otherwise.\n     */\n    function _setStake(address _account, uint96 _subcourtID, uint128 _stake) internal returns(bool succeeded) {\n        if (!(_subcourtID < courts.length))\n            return false;\n\n        // Delayed action logic.\n        if (phase != Phase.staking) {\n            delayedSetStakes[++lastDelayedSetStake] = DelayedSetStake({ account: _account, subcourtID: _subcourtID, stake: _stake });\n            return true;\n        }\n\n        if (!(_stake == 0 || courts[_subcourtID].minStake <= _stake))\n            return false; // The juror's stake cannot be lower than the minimum stake for the subcourt.\n        Juror storage juror = jurors[_account];\n        bytes32 stakePathID = accountAndSubcourtIDToStakePathID(_account, _subcourtID);\n        uint currentStake = sortitionSumTrees.stakeOf(bytes32(_subcourtID), stakePathID);\n        if (!(_stake == 0 || currentStake > 0 || juror.subcourtIDs.length < MAX_STAKE_PATHS))\n            return false; // Maximum stake paths reached.\n        uint newTotalStake = juror.stakedTokens - currentStake + _stake; // Can't overflow because _stake is a uint128.\n        if (!(_stake == 0 || pinakion.balanceOf(_account) >= newTotalStake))\n            return false; // The juror's total amount of staked tokens cannot be higher than the juror's balance.\n\n        // Update juror's records.\n        juror.stakedTokens = newTotalStake;\n        if (_stake == 0) {\n            for (uint i = 0; i < juror.subcourtIDs.length; i++)\n                if (juror.subcourtIDs[i] == _subcourtID) {\n                    juror.subcourtIDs[i] = juror.subcourtIDs[juror.subcourtIDs.length - 1];\n                    juror.subcourtIDs.length--;\n                    break;\n                }\n        } else if (currentStake == 0) juror.subcourtIDs.push(_subcourtID);\n\n        // Update subcourt parents.\n        bool finished = false;\n        uint currentSubcourtID = _subcourtID;\n        while (!finished) {\n            sortitionSumTrees.set(bytes32(currentSubcourtID), _stake, stakePathID);\n            if (currentSubcourtID == 0) finished = true;\n            else currentSubcourtID = courts[currentSubcourtID].parent;\n        }\n        emit StakeSet(_account, _subcourtID, _stake, newTotalStake);\n        return true;\n    }\n\n    /** @dev Gets a subcourt ID and the minimum number of jurors required from a specified extra data bytes array.\n     *  @param _extraData The extra data bytes array. The first 32 bytes are the subcourt ID and the next 32 bytes are the minimum number of jurors.\n     *  @return subcourtID The subcourt ID.\n     *  @return minJurors The minimum number of jurors required.\n     */\n    function extraDataToSubcourtIDAndMinJurors(bytes _extraData) internal view returns (uint96 subcourtID, uint minJurors) {\n        if (_extraData.length >= 64) {\n            assembly { // solium-disable-line security/no-inline-assembly\n                subcourtID := mload(add(_extraData, 0x20))\n                minJurors := mload(add(_extraData, 0x40))\n            }\n            if (subcourtID >= courts.length) subcourtID = 0;\n            if (minJurors == 0) minJurors = MIN_JURORS;\n        } else {\n            subcourtID = 0;\n            minJurors = MIN_JURORS;\n        }\n    }\n\n    /** @dev Packs an account and a subcourt ID into a stake path ID.\n     *  @param _account The account to pack.\n     *  @param _subcourtID The subcourt ID to pack.\n     *  @return stakePathID The stake path ID.\n     */\n    function accountAndSubcourtIDToStakePathID(address _account, uint96 _subcourtID) internal pure returns (bytes32 stakePathID) {\n        assembly { // solium-disable-line security/no-inline-assembly\n            let ptr := mload(0x40)\n            for { let i := 0x00 } lt(i, 0x14) { i := add(i, 0x01) } {\n                mstore8(add(ptr, i), byte(add(0x0c, i), _account))\n            }\n            for { let i := 0x14 } lt(i, 0x20) { i := add(i, 0x01) } {\n                mstore8(add(ptr, i), byte(i, _subcourtID))\n            }\n            stakePathID := mload(ptr)\n        }\n    }\n\n    /** @dev Unpacks a stake path ID into an account and a subcourt ID.\n     *  @param _stakePathID The stake path ID to unpack.\n     *  @return account The account.\n     *  @return subcourtID The subcourt ID.\n     */\n    function stakePathIDToAccountAndSubcourtID(bytes32 _stakePathID) internal pure returns (address account, uint96 subcourtID) {\n        assembly { // solium-disable-line security/no-inline-assembly\n            let ptr := mload(0x40)\n            for { let i := 0x00 } lt(i, 0x14) { i := add(i, 0x01) } {\n                mstore8(add(add(ptr, 0x0c), i), byte(i, _stakePathID))\n            }\n            account := mload(ptr)\n            subcourtID := _stakePathID\n        }\n    }\n\n    /* Interface Views */\n\n    /** @dev Gets a specified subcourt's non primitive properties.\n     *  @param _subcourtID The ID of the subcourt.\n     *  @return children The subcourt's child court list.\n     *  @return timesPerPeriod The subcourt's time per period.\n     */\n    function getSubcourt(uint96 _subcourtID) external view returns(\n        uint[] children,\n        uint[4] timesPerPeriod\n    ) {\n        Court storage subcourt = courts[_subcourtID];\n        children = subcourt.children;\n        timesPerPeriod = subcourt.timesPerPeriod;\n    }\n\n    /** @dev Gets a specified vote for a specified appeal in a specified dispute.\n     *  @param _disputeID The ID of the dispute.\n     *  @param _appeal The appeal.\n     *  @param _voteID The ID of the vote.\n     *  @return account The account for vote.\n     *  @return commit  The commit for vote.\n     *  @return choice  The choice for vote.\n     *  @return voted True if the account voted, False otherwise.\n     */\n    function getVote(uint _disputeID, uint _appeal, uint _voteID) external view returns(\n        address account,\n        bytes32 commit,\n        uint choice,\n        bool voted\n    ) {\n        Vote storage vote = disputes[_disputeID].votes[_appeal][_voteID];\n        account = vote.account;\n        commit = vote.commit;\n        choice = vote.choice;\n        voted = vote.voted;\n    }\n\n    /** @dev Gets the vote counter for a specified appeal in a specified dispute.\n     *  Note: This function is only to be used by the interface and it won't work if the number of choices is too high.\n     *  @param _disputeID The ID of the dispute.\n     *  @param _appeal The appeal.\n     *  @return winningChoice The winning choice.\n     *  @return counts The count.\n     *  @return tied Whether the vote tied.\n     *  `O(n)` where\n     *  `n` is the number of choices of the dispute.\n     */\n    function getVoteCounter(uint _disputeID, uint _appeal) external view returns(\n        uint winningChoice,\n        uint[] counts,\n        bool tied\n    ) {\n        Dispute storage dispute = disputes[_disputeID];\n        VoteCounter storage voteCounter = dispute.voteCounters[_appeal];\n        winningChoice = voteCounter.winningChoice;\n        counts = new uint[](dispute.numberOfChoices + 1);\n        for (uint i = 0; i <= dispute.numberOfChoices; i++) counts[i] = voteCounter.counts[i];\n        tied = voteCounter.tied;\n    }\n\n    /** @dev Gets a specified dispute's non primitive properties.\n     *  @param _disputeID The ID of the dispute.\n     *  @return votesLengths The dispute's vote length.\n     *  @return tokensAtStakePerJuror The dispute's required tokens at stake per Juror.\n     *  @return totalFeesForJurors The dispute's total fees for Jurors.\n     *  @return votesInEachRound The dispute's counter of votes made in each round.\n     *  @return repartitionsInEachRound The dispute's counter of vote reward repartitions made in each round.\n     *  @return penaltiesInEachRound The dispute's amount of tokens collected from penalties in each round.\n     *  `O(a)` where\n     *  `a` is the number of appeals of the dispute.\n     */\n    function getDispute(uint _disputeID) external view returns(\n        uint[] votesLengths,\n        uint[] tokensAtStakePerJuror,\n        uint[] totalFeesForJurors,\n        uint[] votesInEachRound,\n        uint[] repartitionsInEachRound,\n        uint[] penaltiesInEachRound\n    ) {\n        Dispute storage dispute = disputes[_disputeID];\n        votesLengths = new uint[](dispute.votes.length);\n        for (uint i = 0; i < dispute.votes.length; i++) votesLengths[i] = dispute.votes[i].length;\n        tokensAtStakePerJuror = dispute.tokensAtStakePerJuror;\n        totalFeesForJurors = dispute.totalFeesForJurors;\n        votesInEachRound = dispute.votesInEachRound;\n        repartitionsInEachRound = dispute.repartitionsInEachRound;\n        penaltiesInEachRound = dispute.penaltiesInEachRound;\n    }\n\n    /** @dev Gets a specified juror's non primitive properties.\n     *  @param _account The address of the juror.\n     *  @return subcourtIDs The juror's IDs of subcourts where the juror has stake path.\n     */\n    function getJuror(address _account) external view returns(\n        uint96[] subcourtIDs\n    ) {\n        Juror storage juror = jurors[_account];\n        subcourtIDs = juror.subcourtIDs;\n    }\n\n    /** @dev Gets the stake of a specified juror in a specified subcourt.\n     *  @param _account The address of the juror.\n     *  @param _subcourtID The ID of the subcourt.\n     *  @return stake The stake.\n     */\n    function stakeOf(address _account, uint96 _subcourtID) external view returns(uint stake) {\n        return sortitionSumTrees.stakeOf(bytes32(_subcourtID), accountAndSubcourtIDToStakePathID(_account, _subcourtID));\n    }\n}\n","sourcePath":"/home/henrique/dev/kleros/xdai-kleros-liquid/contracts/kleros/xKlerosLiquid.sol","compiler":{"name":"solc","version":"0.4.26+commit.4563c3fc.Emscripten.clang"},"schemaVersion":"3.3.4","updatedAt":"2021-06-14T14:23:47.920Z","devdoc":{"methods":{"appeal(uint256,bytes)":{"details":"Appeals the ruling of a specified dispute.","params":{"_disputeID":"The ID of the dispute.","_extraData":"Additional info about the appeal. Not used by this contract."}},"appealCost(uint256,bytes)":{"details":"Gets the cost of appealing a specified dispute.","params":{"_disputeID":"The ID of the dispute.","_extraData":"Additional info about the appeal. Not used by this contract."},"return":"cost The cost."},"appealPeriod(uint256)":{"details":"Gets the start and end of a specified dispute's current appeal period.","params":{"_disputeID":"The ID of the dispute."},"return":"start The start of the appeal period.end The end of the appeal period."},"arbitrationCost(bytes)":{"details":"Gets the cost of arbitration in a specified subcourt.","params":{"_extraData":"Additional info about the dispute. We use it to pass the ID of the subcourt to create the dispute in (first 32 bytes) and the minimum number of jurors required (next 32 bytes)."},"return":"cost The cost."},"castCommit(uint256,uint256[],bytes32)":{"details":"Sets the caller's commit for the specified votes. `O(n)` where `n` is the number of votes.","params":{"_commit":"The commit.","_disputeID":"The ID of the dispute.","_voteIDs":"The IDs of the votes."}},"castVote(uint256,uint256[],uint256,uint256)":{"details":"Sets the caller's choices for the specified votes. `O(n)` where `n` is the number of votes.","params":{"_choice":"The choice.","_disputeID":"The ID of the dispute.","_salt":"The salt for the commit if the votes were hidden.","_voteIDs":"The IDs of the votes."}},"changeGovernor(address)":{"details":"Changes the `governor` storage variable.","params":{"_governor":"The new value for the `governor` storage variable."}},"changeMaxDrawingTime(uint256)":{"details":"Changes the `maxDrawingTime` storage variable.","params":{"_maxDrawingTime":"The new value for the `maxDrawingTime` storage variable."}},"changeMinStakingTime(uint256)":{"details":"Changes the `minStakingTime` storage variable.","params":{"_minStakingTime":"The new value for the `minStakingTime` storage variable."}},"changePinakion(address)":{"details":"Changes the `pinakion` storage variable.","params":{"_pinakion":"The new value for the `pinakion` storage variable."}},"changeRNGenerator(address)":{"details":"Changes the `RNGenerator` storage variable.","params":{"_RNGenerator":"The new value for the `RNGenerator` storage variable."}},"changeSubcourtAlpha(uint96,uint256)":{"details":"Changes the `alpha` property value of a specified subcourt.","params":{"_alpha":"The new value for the `alpha` property value.","_subcourtID":"The ID of the subcourt."}},"changeSubcourtJurorFee(uint96,uint256)":{"details":"Changes the `feeForJuror` property value of a specified subcourt.","params":{"_feeForJuror":"The new value for the `feeForJuror` property value.","_subcourtID":"The ID of the subcourt."}},"changeSubcourtJurorsForJump(uint96,uint256)":{"details":"Changes the `jurorsForCourtJump` property value of a specified subcourt.","params":{"_jurorsForCourtJump":"The new value for the `jurorsForCourtJump` property value.","_subcourtID":"The ID of the subcourt."}},"changeSubcourtMinStake(uint96,uint256)":{"details":"Changes the `minStake` property value of a specified subcourt. Don't set to a value lower than its parent's `minStake` property value.","params":{"_minStake":"The new value for the `minStake` property value.","_subcourtID":"The ID of the subcourt."}},"changeSubcourtTimesPerPeriod(uint96,uint256[4])":{"details":"Changes the `timesPerPeriod` property value of a specified subcourt.","params":{"_subcourtID":"The ID of the subcourt.","_timesPerPeriod":"The new value for the `timesPerPeriod` property value."}},"createDispute(uint256,bytes)":{"details":"Creates a dispute. Must be called by the arbitrable contract.","params":{"_extraData":"Additional info about the dispute to be created. We use it to pass the ID of the subcourt to create the dispute in (first 32 bytes) and the minimum number of jurors required (next 32 bytes).","_numberOfChoices":"Number of choices to choose from in the dispute to be created."},"return":"disputeID The ID of the created dispute."},"createSubcourt(uint96,bool,uint256,uint256,uint256,uint256,uint256[4],uint256)":{"details":"Creates a subcourt under a specified parent court.","params":{"_alpha":"The `alpha` property value of the subcourt.","_feeForJuror":"The `feeForJuror` property value of the subcourt.","_hiddenVotes":"The `hiddenVotes` property value of the subcourt.","_jurorsForCourtJump":"The `jurorsForCourtJump` property value of the subcourt.","_minStake":"The `minStake` property value of the subcourt.","_parent":"The `parent` property value of the subcourt.","_sortitionSumTreeK":"The number of children per node of the subcourt's sortition sum tree.","_timesPerPeriod":"The `timesPerPeriod` property value of the subcourt."}},"currentRuling(uint256)":{"details":"Gets the current ruling of a specified dispute.","params":{"_disputeID":"The ID of the dispute."},"return":"ruling The current ruling."},"disputeStatus(uint256)":{"details":"Gets the status of a specified dispute.","params":{"_disputeID":"The ID of the dispute."},"return":"status The status."},"drawJurors(uint256,uint256)":{"details":"Draws jurors for a dispute. Can be called in parts. `O(n * k * log_k(j))` where `n` is the number of iterations to run, `k` is the number of children per node of the dispute's court's sortition sum tree, and `j` is the maximum number of jurors that ever staked in it simultaneously.","params":{"_disputeID":"The ID of the dispute.","_iterations":"The number of iterations to run."}},"execute(uint256,uint256,uint256)":{"details":"Repartitions tokens and ETH for a specified appeal in a specified dispute. Can be called in parts. `O(i + u * n * (n + p * log_k(j)))` where `i` is the number of iterations to run, `u` is the number of jurors that need to be unstaked, `n` is the maximum number of subcourts one of these jurors has staked in, `p` is the depth of the subcourt tree, `k` is the minimum number of children per node of one of these subcourts' sortition sum tree, and `j` is the maximum number of jurors that ever staked in one of these subcourts simultaneously.","params":{"_appeal":"The appeal.","_disputeID":"The ID of the dispute.","_iterations":"The number of iterations to run."}},"executeDelayedSetStakes(uint256)":{"details":"Executes the next delayed set stakes. `O(n)` where `n` is the number of iterations to run.","params":{"_iterations":"The number of delayed set stakes to execute."}},"executeGovernorProposal(address,uint256,bytes)":{"details":"Lets the governor call anything on behalf of the contract.","params":{"_amount":"The value sent with the call.","_data":"The data sent with the call.","_destination":"The destination of the call."}},"executeRuling(uint256)":{"details":"Executes a specified dispute's ruling. UNTRUSTED.","params":{"_disputeID":"The ID of the dispute."}},"getDispute(uint256)":{"details":"Gets a specified dispute's non primitive properties.","params":{"_disputeID":"The ID of the dispute."},"return":"votesLengths The dispute's vote length.tokensAtStakePerJuror The dispute's required tokens at stake per Juror.totalFeesForJurors The dispute's total fees for Jurors.votesInEachRound The dispute's counter of votes made in each round.repartitionsInEachRound The dispute's counter of vote reward repartitions made in each round.penaltiesInEachRound The dispute's amount of tokens collected from penalties in each round. `O(a)` where `a` is the number of appeals of the dispute."},"getJuror(address)":{"details":"Gets a specified juror's non primitive properties.","params":{"_account":"The address of the juror."},"return":"subcourtIDs The juror's IDs of subcourts where the juror has stake path."},"getSubcourt(uint96)":{"details":"Gets a specified subcourt's non primitive properties.","params":{"_subcourtID":"The ID of the subcourt."},"return":"children The subcourt's child court list.timesPerPeriod The subcourt's time per period."},"getVote(uint256,uint256,uint256)":{"details":"Gets a specified vote for a specified appeal in a specified dispute.","params":{"_appeal":"The appeal.","_disputeID":"The ID of the dispute.","_voteID":"The ID of the vote."},"return":"account The account for vote.commit  The commit for vote.choice  The choice for vote.voted True if the account voted, False otherwise."},"getVoteCounter(uint256,uint256)":{"details":"Gets the vote counter for a specified appeal in a specified dispute. Note: This function is only to be used by the interface and it won't work if the number of choices is too high.","params":{"_appeal":"The appeal.","_disputeID":"The ID of the dispute."},"return":"winningChoice The winning choice.counts The count.tied Whether the vote tied. `O(n)` where `n` is the number of choices of the dispute."},"initialize(address,address,address,uint256,uint256,bool,uint256,uint256,uint256,uint256,uint256[4],uint256)":{"details":"Constructs the KlerosLiquid contract.","params":{"_RNGenerator":"The address of the random number generator contract.","_alpha":"The `alpha` property value of the general court.","_feeForJuror":"The `feeForJuror` property value of the general court.","_governor":"The governor's address.","_hiddenVotes":"The `hiddenVotes` property value of the general court.","_jurorsForCourtJump":"The `jurorsForCourtJump` property value of the general court.","_maxDrawingTime":"The maximum time that the drawing phase should last.","_minStake":"The `minStake` property value of the general court.","_minStakingTime":"The minimum time that the staking phase should last.","_pinakion":"The address of the token contract.","_sortitionSumTreeK":"The number of children per node of the general court's sortition sum tree.","_timesPerPeriod":"The `timesPerPeriod` property value of the general court."}},"onApprove(address,address,uint256)":{"details":"Notifies the controller about an approval allowing the controller to react if desired.","params":{"_amount":"The amount in the `approve()` call.","_owner":"The address that calls `approve()`.","_spender":"The spender in the `approve()` call."},"return":"allowed Whether the operation should be allowed or not."},"onTransfer(address,address,uint256)":{"details":"Notifies the controller about a token transfer allowing the controller to react if desired.","params":{"_amount":"The amount of the transfer.","_from":"The origin of the transfer.","_to":"The destination of the transfer."},"return":"allowed Whether the operation should be allowed or not."},"passPeriod(uint256)":{"details":"Passes the period of a specified dispute.","params":{"_disputeID":"The ID of the dispute."}},"passPhase()":{"details":"Passes the phase. TRUSTED "},"proxyPayment(address)":{"details":"DEPRECATED. Called when `_owner` sends ETH to the Wrapped Token contract.","params":{"_owner":"The address that sent the ETH to create tokens."},"return":"allowed Whether the operation should be allowed or not."},"setStake(uint96,uint128)":{"details":"Sets the caller's stake in a subcourt.","params":{"_stake":"The new stake.","_subcourtID":"The ID of the subcourt."}},"stakeOf(address,uint96)":{"details":"Gets the stake of a specified juror in a specified subcourt.","params":{"_account":"The address of the juror.","_subcourtID":"The ID of the subcourt."},"return":"stake The stake."}},"title":"xKlerosLiquid"},"userdoc":{"methods":{}}}